S01600005053555F71756164636F707465722E737265637F
S1130000F9C000001BC1000019C1000017C10000A5
S113001015C1000013C1000011C100000FC1000090
S11300200DC100000BC1000009C1000007C10000A0
S113003005C1000003C1000001C10000FFC00000B1
S1130040FDC00000FBC00000F9C00000F7C00000C4
S1130050F5C00000F3C00000F1C00000EFC00000D4
S1130060EDC00000EBC00000E9C00000E7C00000E4
S1130070E5C00000E3C00000E1C00000DFC00000F4
S1130080DDC00000DBC00000D9C00000D7C0000004
S1130090D5C00000D3C00000D1C00000CFC0000014
S11300A0CDC00000CBC00000C9C00000C7C0000024
S11300B0C5C00000C3C00000C1C00000BFC0000034
S11300C0BDC00000BBC00000B9C00000B7C0000044
S11300D0B5C00000B3C00000B1C00000AFC0000054
S11300E0ADC00000ABC00000A9C00000A7C0000064
S11300F0A5C00000A3C00000A1C000009FC0000074
S11301009DC000009BC0000099C0000097C0000083
S113011095C0000093C0000091C000008FC0000093
S11301208DC000008BC0000089C0000087C00000A3
S113013085C00000FEC3000081C000007FC0000035
S11301407DC000007BC0000079C0000077C00000C3
S113015075C0000073C0000071C000006FC00000D3
S11301606DC000006BC0000069C0000067C00000E3
S113017065C0000063C0000061C000005FC00000F3
S11301805DC000005BC0000059C0000057C0000003
S113019055C0000053C0000051C000004FC0000013
S11301A04DC000004BC0000049C0000047C0000023
S11301B045C0000043C0000041C000003FC0000033
S11301C03DC000003BC0000039C0000037C0000043
S11301D035C0000033C0000031C000002FC0000053
S11301E02DC000002BC0000029C0000027C0000063
S11301F025C0000011241FBECFEFDFE3DEBFCDBF5B
S113020000E00CBF18BE19BE1ABE1BBE10E2A0E06F
S1130210B0E2E2E2FBE000E00BBF02C007900D9207
S1130220A030B107D9F71BBE21E2A0E0B0E201C0C3
S11302301D92AC32B207E1F725D371C4E1CECF935E
S1130240DF93FC01C2ADD3ADC0AFD1AF64AD75AD2A
S113025062AF73AF40A551A544AF55AF848D958D62
S113026022273327281B390B20A731A7C60FD71FF6
S1130270C40FD51FC81BD90BC0ABD1AB428953895E
S1130280249FC001259F900D349F900D11246AE096
S113029070E01ED49B016083718344895589C49F97
S11302A0C001C59F900DD49F900D112462E370E0AE
S11302B00FD462837383260F371F208F318FDF9112
S11302C0CF910895E0E0F8E083E080838183828326
S11302D08383818180618183818180628183818143
S11302E0806481838181806881838FE0A0E4B6E0AB
S11302F011968C9310AE11AE12AE13AE14AE15AEB1
S113030010923E0810923F0889E298E686A397A3CC
S113031063E080E098E0BDC3E0E0F8E0E485E0FF5E
S11303200EC0E0E0F8E0A1E0A48780AF91AF62AF37
S113033073AF44AF55AF20933E0830933F08089500
S11303408091D4209091D5209C01215D37402F329B
S11303503840C8F4880F991F880F991F609119209D
S113036070911A20E0916220F09163209C01260F85
S1130370371FAC014E0F5F1FDC01A61BB70BBD017D
S11303808E1B9F0BC9CF20E030E040E050E060E0DE
S113039070E080E090E0C0CF85E090E080930D2095
S11303A090930E2010920F20109210208093112011
S11303B090931220809356209093572010925820A7
S11303C01092592080935A2090935B2088EC90E0FF
S11303D080932D2090932E208093762090937720E5
S11303E080930221909303210895AF92BF92CF92FC
S11303F0DF92FF920F931F93CF93DF9300E816E0F1
S11304006894FF24F4F8F801F6820F2EF4EDCF2E51
S1130410F0E2DF2EF02DF601818190E0C0D2D82FDA
S1130420F0E0CF2FF601C083D18380E090E0B7D213
S11304308C0F9D1FF601808391830F2EF4E6AF2E5F
S1130440F0E2BF2EF02DF501818190E0A8D2D82FE3
S1130450F0E0CF2F0F2EFFE1CF2EF0E2DF2EF02DB4
S1130460F601C083D183F50180819181992797D2C8
S11304708C0F9D1FF601808391830F2EFBE1AF2E1D
S1130480F0E2BF2EF02DF501818190E088D2D82FC3
S1130490F0E0CF2F0F2EF8E6CF2EF0E2DF2EF02D76
S11304A0F601C083D183F50180819181992777D2A8
S11304B08C0F9D1FF601808391830F2EF0EFAF2EDA
S11304C0F0E2BF2EF02DF501818190E068D2D82FA3
S11304D0F0E0CF2F0F2EF4EFCF2EF0E2DF2EF02D31
S11304E0F601C083D183F50180819181992757D288
S11304F08C0F9D1FF601808391830F2EF6E6AF2E9D
S1130500F0E2BF2EF02DF501818190E048D2D82F82
S1130510F0E0CF2F0F2EFCE5CF2EF0E2DF2EF02DF2
S1130520F601C083D183F50180819181992737D267
S11305308C0F9D1FF601808391830F2EF2E7AF2E5F
S1130540F0E2BF2EF02DF501818190E028D2D82F62
S1130550F0E0CF2F0F2EFEE5CF2EF0E2DF2EF02DB0
S1130560F601C083D183F50180819181992717D247
S11305708C0F9D1FF601808391830F2EF2E6AF2E20
S1130580F0E2BF2EF02DF501818190E008D2D82F42
S1130590F0E0CF2F0F2EF0E6CF2EF0E2DF2EF02D7D
S11305A0F601C083D183F501808191819927F7D128
S11305B08C0F9D1FF60180839183C2EFD0E2898165
S11305C090E0EDD110924720809348208881998152
S11305D09927E5D12091472030914820820F931F1D
S11305E080934720909348208CEC90E0D8D180935E
S11305F049208CEC90E0D3D180934920F801F58216
S11306008091472090914820DF91CF911F910F91C5
S1130610FF90DF90CF90BF90AF9008950F931F93FA
S1130620CF93DF93C0EAD6E010E11E8380E090E030
S1130630C3D182E690E0C0D180E090E0BDD1082F24
S113064080E090E0B9D1302F20E0822B932B80936F
S11306501B2090931C2080E090E0AED1082F83E60D
S113066090E0AAD1302F20E0822B932B809364203A
S11306709093652080E090E09FD1082F80E090E087
S11306809BD1302F20E0822B932B8093F0209093EA
S1130690F12080E090E090D18CE590E08DD180E075
S11306A090E08AD1082F80E090E086D1302F20E0BE
S11306B0822B932B809366209093672080E090E0B8
S11306C07BD1082F8DE590E077D1302F20E0822B6D
S11306D0932B80931D2090931E2080E090E06CD19A
S11306E0082F80E090E068D1302F20E0822B932BFC
S11306F08093F2209093F32080E090E05DD189E72D
S113070090E05AD11D83DF91CF911F910F910895ED
S113071080911C2190911D21019680931C2190931E
S11307201D217CDF0DDE8AE490E289DD80911C21AD
S113073090911D21449728F058DE10921C211092AC
S11307401D210895E0E5F0E080818260808381814D
S113075081FFFDCF88ED84BF81E080934000089540
S1130760E0E0F9E083E08083118280EC9DE586A3DC
S113077097A381E08683E0EAF0E08281816082834E
S113078008951F93CF93DF93C0EAD6E010E11E8350
S113079081E090E011D18CEA90E00ED180E090E00D
S11307A00BD180E090E008D180E090E005D180E0BA
S11307B090E002D18FE891E00197F1F700C00000CA
S11307C081E090E0F9D08FEA90E0F6D080E090E00C
S11307D0F3D080E090E0F0D080E090E0EDD080E0D5
S11307E090E0EAD08FE891E00197F1F700C00000B3
S11307F081E090E0E1D080EB90E0DED080E090E01A
S1130800DBD080E090E0D8D080E090E0D5D080E0EC
S113081090E0D2D08FE891E00197F1F700C000009A
S113082081E090E0C9D08DEA90E0C6D080E090E00D
S1130830C3D080E090E0C0D080E090E0BDD080E004
S113084090E0BAD01D8381E0DF91CF911F9108958C
S1130850CF93DF93C0E0D6E08FEF898378941FD1E4
S1130860B8D09ADD8EDF2FEF8FE493EC21508040D7
S11308709040E1F700C0000084DF198281E0DF913D
S1130880CF9108958FE0E0E0F6E087831092002096
S113089059DF66DFDDDF0000FECF1F93CF93DF93C8
S11308A080910020813091F030F08230D9F0843092
S11308B009F03BC034C0E0E0F6E0178284E08783AF
S11308C0C7DF813091F5809300202FC0A7DE8DDD36
S11308D0019709F456DF89DD029739F582E08093A8
S11308E0002023C0C0E0D6E014E01F83EBDC1093AB
S11308F000201F832FEF87EA91E62150804090402B
S1130900E1F700C000001F832FEF87EA91E6215032
S113091080409040E1F700C000001F8306C0E0E083
S1130920F6E0178288E08783F3DEDF91CF911F9191
S113093008951F920F920FB60F92112408B60F92CA
S113094018BE09B60F9219BE0BB60F921BBE2F9399
S11309503F934F935F936F937F938F939F93AF9343
S1130960BF93EF93FF9399DFE0E0F9E010A211A2A7
S1130970FF91EF91BF91AF919F918F917F916F9173
S11309805F914F913F912F910F900BBE0F9009BE35
S11309900F9008BE0F900FBE0F901F901895E0ECBB
S11309A0FAE0838382818823ECF780E48A95F1F767
S11309B0E0ECFAE083810895E0ECFBE0838382813C
S11309C08823ECF780E28A95F1F7E0ECFBE0838181
S11309D00895AF92CF92EF920F93CF93DF93E0EA13
S11309E0F6E0C0E1C183D8E3D48BC583A12CC12C2C
S11309F0E12C00E020E040EA56E060EC7BE08EE190
S1130A0091E21DD0E0ECFBE01382E0E8F6E0C18364
S1130A10D48BC5836894AA24A1F820E040E856E06A
S1130A2060EC7AE085E291E20AD0E0ECFAE013822D
S1130A30DF91CF910F91EF90CF90AF900895AF9247
S1130A40CF92EF920F93FC016083718342835383AF
S1130A501482CC2011F090E801C090E0222311F020
S1130A6080E201C080E000650A29092B082BDB0124
S1130A700C93A081B1811196EC92158216820280AA
S1130A80F381E02D80EA81830F91EF90CF90AF90B6
S1130A900895FC012081207F622B60830895E0E6A5
S1130AA0F6E090E4928380E88183E0E4F6E09283C8
S1130AB08183E0EBF9E08BE0858387E1868384EA38
S1130AC0878384818061848384818860848308959A
S1130AD097FB072E16F4009406D077FD08D00BD0B0
S1130AE007FC05D03EF4909581959F4F089570952D
S1130AF061957F4F0895AA1BBB1B51E107C0AA1F34
S1130B00BB1FA617B70710F0A61BB70B881F991FAA
S1130B105A95A9F780959095BC01CD010895F89454
S1050B20FFCF01
S9030000FC
