S01600005053555F71756164636F707465722E737265637F
S1130000F9C000001BC1000019C1000017C10000A5
S113001015C1000013C1000011C100000FC1000090
S11300200DC100000BC1000009C1000007C10000A0
S113003005C1000003C1000001C10000FFC00000B1
S1130040FDC00000FBC00000F9C00000F7C00000C4
S1130050F5C00000F3C00000F1C00000EFC00000D4
S1130060EDC00000EBC00000E9C00000E7C00000E4
S1130070E5C00000E3C00000E1C00000DFC00000F4
S1130080DDC00000DBC00000D9C00000D7C0000004
S1130090D5C00000D3C00000D1C00000CFC0000014
S11300A0CDC00000CBC00000C9C00000C7C0000024
S11300B0C5C00000C3C00000C1C00000BFC0000034
S11300C0BDC00000BBC00000B9C00000B7C0000044
S11300D0B5C00000B3C00000B1C00000AFC0000054
S11300E0ADC00000ABC00000A9C00000A7C0000064
S11300F0A5C00000A3C00000A1C000009FC0000074
S11301009DC000009BC0000099C0000097C0000083
S113011095C0000093C0000091C000008FC0000093
S11301208DC000008BC0000089C0000087C00000A3
S113013085C00000A2C5000081C000007FC000008F
S11301407DC000007BC0000079C0000077C00000C3
S113015075C0000073C0000071C000006FC00000D3
S11301606DC000006BC0000069C0000067C00000E3
S113017065C0000063C0000061C000005FC00000F3
S11301805DC000005BC0000059C0000057C0000003
S113019055C0000053C0000051C000004FC0000013
S11301A04DC000004BC0000049C0000047C0000023
S11301B045C0000043C0000041C000003FC0000033
S11301C03DC000003BC0000039C0000037C0000043
S11301D035C0000033C0000031C000002FC0000053
S11301E02DC000002BC0000029C0000027C0000063
S11301F025C0000011241FBECFEFDFE3DEBFCDBF5B
S113020000E00CBF18BE19BE1ABE1BBE10E2A0E06F
S1130210B0E2E2ECFEE000E00BBF02C007900D92FA
S1130220AA30B107D9F71BBE21E2AAE0B0E201C0AF
S11302301D92A439B207E1F7D3D441C6E1CEFC0143
S113024082AD93AD80AF91AF84AD95AD82AF93AFE6
S113025084A595A584AF95AF26A137A1468D578D6A
S1130260241B350B24A735A7BC01620F731F408DD7
S1130270518D649FC001659F900D749F900D112452
S113028068E572E0F5D584859585680F791F6487E4
S113029075878091042090910520861797071CF498
S11302A08487958709C0809106209091072068175C
S11302B0790714F48487958746895789249FC00158
S11302C0259F900D349F900D11242AE030E0B90150
S11302D0CFD562877387DF01A45BBF4F6D937C9397
S11302E042A153A1CB01841B950BB901C1D566A7CB
S11302F077A720893189629FC001639F900D729F07
S1130300900D112484839583848F958F0895E0E064
S1130310F8E083E0808381838283838381818061A9
S113032081838181806281838181806481838181F1
S1130330806881838FE0A0E4B6E011968C9310AEC0
S113034011AE12AE13AE14AE15AE10923E0810925A
S11303503F0889E298E686A397A363E080E098E0EB
S113036054C5E0E0F8E0E485E0FF0EC0E0E0F8E02A
S1130370A1E0A48780AF91AF62AF73AF44AF55AF34
S113038020933E0830933F0808958091172190915F
S113039018219C01215D37402F32384008F046C0B7
S11303A020910820211117C0880F991F880F991FC9
S11303B060918D2070918E20E0912B20F0912C2063
S11303C09C01261B370BAC014E1B5F0B680F791F7A
S11303D08E0F9F1FC6DF80910820813039F58091F0
S11303E0172190911821880F991F880F991F6091E8
S11303F08D2070918E20E0914121F0914221A091B5
S11304002B20B0912C209C01261B370B2E0F3F1F55
S1130410AC014A1B5B0B4E0F5F1F680F791F6E1BED
S11304207F0B8A0F9B1F8E1B9F0B9BDF80911721D5
S11304309091182106974CF420E030E040E050E021
S113044060E070E080E090E08CCF089544E050E0FC
S1130450409387205093882082E090E08093892005
S113046090938A2026E030E02093812030938220EC
S1130470109283201092842080933B2190933C21FE
S113048080933D2190933E21809335219093362192
S11304901092372110923821409325205093262022
S11304A0809327209093282020931F20309320208E
S11304B0109221201092222088EC90E08093412019
S11304C0909342208093A3209093A420809357215B
S11304D09093582108958CEC9CECBED480913520E7
S11304E090913620B9D480912D2090912E20B4C4BF
S11304F0EF92FF920F931F93CF93DF9380E1E0E895
S1130500F6E0868380E0EFD3D82F20E0C22F07E106
S113051011E2F801C083D18380916620E4D3C80F2F
S1130520D11DF801C083D1830F2EFFE2EF2EF0E23C
S1130530FF2EF02DF7018181D6D3D82FF0E0CF2FF5
S113054005E310E2F801C083D183F7018081CBD3A6
S1130550C80FD11DF801C083D1830F2EF1E9EF2E0E
S1130560F0E2FF2EF02DF7018181BDD3D82FF0E00A
S1130570CF2F07E910E2F801C083D183F70180810E
S1130580B2D3C80FD11DF801C083D1830F2EF5E477
S1130590EF2EF1E2FF2EF02DF7018181A4D3D82FA5
S11305A0F0E0CF2F0BE411E2F801C083D183F7010F
S11305B0808199D3C80FD11DF801C083D183E1E4B0
S11305C0F1E28081918199230CF4019695958795A8
S11305D003E310E2F80180839183892F84D3D82F19
S11305E0F0E0CF2F0F2EFBE3EF2EF1E2FF2EF02DE4
S11305F0F701C083D183F801808175D3C80FD11D61
S1130600F701C083D1830F2EF5E9EF2EF0E2FF2E20
S1130610F02DF701C083D1838D2F65D3D82FF0E05F
S1130620CF2F0DE311E2F801C083D183F70180815C
S11306305AD39E01280F311DC901F801208331834B
S1130640C9E4D1E228833983892F4DD3182F00E0E0
S11306500F2EF5E3EF2EF1E2FF2EF02DF7010083CC
S11306601183888140D3080F111DF7010083118382
S1130670898139D31092632080936420888133D395
S11306802091632030916420280F311D2093632032
S11306903093642080E827D38093662080E823D3B6
S11306A08093662080E1E0E8F6E085838091632012
S11306B090916420DF91CF911F910F91FF90EF9063
S11306C00895EF92FF920F931F93CF93DF9380E1EE
S11306D0E0E8F6E0868380E006D3D82F80E0C82FD8
S11306E007E111E2F801C083D18380916620FBD237
S11306F0C80FD11DF801C083D183E5E3F0E2808106
S1130700918199230CF4019695958795CFE2D0E2D7
S113071088839983892FE7D2109266208881E3D257
S113072090916620890F80936620E5E3F0E2808152
S1130730918199230CF401969595879501E910E22E
S1130740F80180839183892FCED2D82FF0E0CF2F68
S11307500F2EF7E9EF2EF0E2FF2EF02DF701C08304
S1130760D183F8018081BFD2C80FD11DF701C083A6
S1130770D1830F2EF5E4EF2EF1E2FF2EF02DF701D9
S11307808181B1D2D82FF0E0CF2F0BE411E2F80130
S1130790C083D183F7018081A6D2C80FD11DF8018F
S11307A0C083D183E5E3F0E28081918199230CF445
S11307B001969595879503E310E2F8018083918370
S11307C0892F91D2D82FF0E0CF2F0F2EF7E8EF2EFC
S11307D0F0E2FF2EF02DF701C083D183F801808170
S11307E082D2C80FD11DF701C083D183EBE1F0E2BF
S11307F08081918199230CF401969595879505E95B
S113080010E2F80180839183892F6DD2D82FF0E014
S1130810CF2F0F2EF9E8EF2EF0E2FF2EF02DF70187
S1130820C083D183F80180815ED2C80FD11DF70146
S1130830C083D183E3E1F0E28081918199230CF4B8
S1130840019695958795C9E4D1E288839983892F88
S11308504AD2182F00E00F2EF1E8EF2EF0E2FF2E1F
S1130860F02DF7010083118388813DD2080F111DFB
S1130870F70100831183898136D21092632080931B
S11308806420888130D22091632030916420280F25
S1130890311D209363203093642080E824D2809318
S11308A0662080E820D28093662080E1E0E8F6E0CC
S11308B085838091632090916420DF91CF911F9173
S11308C00F91FF90EF900895CF9380E1E0EAF6E076
S11308D0868380E016D282E614D280E012D2C82F3A
S11308E080E00FD23C2F20E0282B20932D20309342
S11308F02E20C90199230CF4019695958795809330
S11309002F209093302080E0FCD1C82F83E6F9D1CA
S11309103C2F20E0282B20938F2030939020C90176
S113092099230CF401969595879580939120909343
S1130930922080E0E6D1C82F80E0E3D13C2F20E074
S1130940282B2093432130934421C90199230CF48B
S1130950019695958795809345219093462180E053
S1130960D0D18CE5CED180E0CCD1C82F80E0C9D1E4
S11309703C2F20E0282B2093312030933220C901D2
S113098099230CF401969595879580933320909341
S1130990342080E0B6D1C82F8DE5B3D13C2F20E0C0
S11309A0282B2093932030939420C90199230CF48D
S11309B0019695958795809395209093962080E055
S11309C0A0D1C82F80E09DD13C2F20E0282B20937C
S11309D0472130934821C90199230CF40196959538
S11309E087958093492190934A2180E08AD180E0C1
S11309F088D180E1E0EAF6E08583CF910895809183
S1130A00792190917A2101968093792190937A218A
S1130A105BDF81E790E213DC85E291E210DC8FE09A
S1130A2090E20DDCB2DC57DD8091792190917A213E
S1130A304F97D0F080910A20811109C059DD80932D
S1130A406F20909370201092792110927A218091D6
S1130A500A20813049F435DE80936F209093702012
S1130A601092792110927A210895E0E5F0E08081D6
S1130A7082608083818181FFFDCF88ED84BF81E026
S1130A80809340000895E0E0F9E083E080831182E0
S1130A908AE298E686A397A381E08683E0EAF0E001
S1130AA082818160828308951F93CF93DF93C0EA8C
S1130AB0D6E010E11E8381E024D1809366208CEA85
S1130AC020D18093662080E01CD18093662080E052
S1130AD018D18093662080E014D18093662080E052
S1130AE010D1809366208FE891E00197F1F700C060
S1130AF0000081E006D1809366208FEA02D18093C2
S1130B00662080E0FED08093662080E0FAD0809357
S1130B10662080E0F6D08093662080E0F2D0809357
S1130B2066208FE891E00197F1F700C0000081E0B2
S1130B30E8D08093662080EBE4D08093662080E048
S1130B40E0D08093662080E0DCD08093662080E053
S1130B50D8D08093662080E0D4D0809366208FE83C
S1130B6091E00197F1F700C0000081E0CAD08093C2
S1130B7066208DEAC6D08093662080E0C2D0809340
S1130B80662080E0BED08093662080E0BAD0809357
S1130B90662080E0B6D0809366201D8381E0DF91DB
S1130BA0CF911F910895789436D1B8D04FDC7CDF73
S1130BB02FEF8FE493EC215080409040E1F700C088
S1130BC0000072DF10927721109278211092612038
S1130BD0109262201092C3201092C42081E00895E4
S1130BE08FE0E0E0F6E081838AEA809365203DDFD0
S1130BF0DADF49DF0000FECF81E0E0E0F6E0878342
S1130C0080916520823071F118F48130A9F50AC011
S1130C10843069F18A3A81F5C6DF813069F58093C1
S1130C20652008952FEF83EC99E021508040904097
S1130C30E1F700C0000048DE82E0E0E0F6E08583F2
S1130C4057DC80936F2090937020019709F42CDF78
S1130C5080916F2090917020029771F482E08093CC
S1130C606520089554DB84E080936520089582E034
S1130C70E0E0F6E08783C3CE08951F920F920FB68B
S1130C800F92112408B60F9218BE09B60F9219BE1E
S1130C900BB60F921BBE2F933F934F935F936F93AB
S1130CA07F938F939F93AF93BF93EF93FF93E0E072
S1130CB0F9E010A211A2A0DFFF91EF91BF91AF91D3
S1130CC09F918F917F916F915F914F913F912F9160
S1130CD00F900BBE0F9009BE0F9008BE0F900FBE71
S1130CE00F901F901895E0ECFAE0838382818823AB
S1130CF0ECF78AE28A95F1F700C0E0ECFAE0838130
S1130D000895E0ECFBE0838382818823ECF780E2A2
S1130D108A95F1F7E0ECFBE083810895AF92CF92DE
S1130D20EF920F93CF93DF93E0EAF6E0C0E1C18343
S1130D30D8E3D48BC5830F2EF3E0AF2EF02DC12C56
S1130D40E12C00E020E040EA56E060EC7BE08FE735
S1130D5091E231D0E0ECFBE01382E0E4F6E0C18301
S1130D60D48BC5836894AA24A1F820E040E456E01B
S1130D7060EC78E086E891E21ED0E0ECF8E01382C3
S1130D80E0E8F6E0C183D48BC5830F2EF3E0AF2EE9
S1130D90F02D20E040E856E060EC7AE08DE891E246
S1130DA00AD0E0ECFAE01382DF91CF910F91EF903B
S1130DB0CF90AF900895AF92CF92EF920F93FC0132
S1130DC060837183428353831482CC2011F090E8B2
S1130DD001C090E0222311F080E201C080E00065B0
S1130DE00A29092B082BDB010C93A081B1811196F0
S1130DF0EC92158216820280F381E02D80EA8183D1
S1130E000F91EF90CF90AF900895FC012081207F47
S1130E10622B60830895E0E6F6E090E4928380E834
S1130E208183E0E4F6E092838183E0EBF9E08BE0F8
S1130E30858387E1868384EA8783848180618483D0
S1130E408481886084830895E0EBF9E0918195FFC3
S1130E50FDCF8093B0090895CF93DF93EC018D2FDC
S1130E6090E0F2DFCE019927EFDFDF91CF91089573
S1130E7097FB072E16F4009406D077FD08D00BD00C
S1130E8007FC05D03EF4909581959F4F0895709589
S1130E9061957F4F0895AA1BBB1B51E107C0AA1F90
S1130EA0BB1FA617B70710F0A61BB70B881F991F07
S1130EB05A95A9F780959095BC01CD010895F894B1
S1050EC0FFCF5E
S10D0EC201000000B80B48F4010021
S9030000FC
