:10000000F9C000001BC1000019C1000017C10000A9
:1000100015C1000013C1000011C100000FC1000094
:100020000DC100000BC1000009C1000007C10000A4
:1000300005C1000003C1000001C10000FFC00000B5
:10004000FDC00000FBC00000F9C00000F7C00000C8
:10005000F5C00000F3C00000F1C00000EFC00000D8
:10006000EDC00000EBC00000E9C00000E7C00000E8
:10007000E5C00000E3C00000E1C00000DFC00000F8
:10008000DDC00000DBC00000D9C00000D7C0000008
:10009000D5C00000D3C00000D1C00000CFC0000018
:1000A000CDC00000CBC00000C9C00000C7C0000028
:1000B000C5C00000C3C00000C1C00000BFC0000038
:1000C000BDC00000BBC00000B9C00000B7C0000048
:1000D000B5C00000B3C00000B1C00000AFC0000058
:1000E000ADC00000ABC00000A9C00000A7C0000068
:1000F000A5C00000A3C00000A1C000009FC0000078
:100100009DC000009BC0000099C0000097C0000087
:1001100095C0000093C0000091C000008FC0000097
:100120008DC000008BC0000089C0000087C00000A7
:1001300085C000009DC4000081C000007FC0000099
:100140007DC000007BC0000079C0000077C00000C7
:1001500075C0000073C0000071C000006FC00000D7
:100160006DC000006BC0000069C0000067C00000E7
:1001700065C0000063C0000061C000005FC00000F7
:100180005DC000005BC0000059C0000057C0000007
:1001900055C0000053C0000051C000004FC0000017
:1001A0004DC000004BC0000049C0000047C0000027
:1001B00045C0000043C0000041C000003FC0000037
:1001C0003DC000003BC0000039C0000037C0000047
:1001D00035C0000033C0000031C000002FC0000057
:1001E0002DC000002BC0000029C0000027C0000067
:1001F00025C0000011241FBECFEFDFE3DEBFCDBF5F
:1002000000E00CBF18BE19BE1ABE1BBE10E2A0E073
:10021000B0E2E6E6FCE000E00BBF02C007900D9202
:10022000A230B107D9F71BBE21E2A2E0B0E201C0C3
:100230001D92A634B207E1F784D313C5E1CEAF9285
:10024000BF92CF92DF92EF92FF920F931F93CF93C3
:10025000DF93FC0180AD91AD86AB97ABC2ACD3AC64
:10026000C0AED1AEE2A4F3A4E2AEF3AE12A213A2EA
:10027000C68DD78DD195C195D109C2A7D3A720919D
:10028000002030910120B901C5D48B01C601B9010C
:10029000C1D4060F171FC701B901BCD4060F171F21
:1002A000CE01B901B7D4060F171F02AB13AB4689B5
:1002B0005789C49FC001C59F900DD49F900D1124F4
:1002C00064E670E0A7D4EB0162877387408D518D9F
:1002D000049FC001059F900D149F900D112468EE9E
:1002E00073E098D464877587C60FD71FDF01A65BBC
:1002F000BF4FCD93DC93C6ACD7ACC4AED5AEDF0157
:10030000A05CBF4FED90FC901197E6AEF7AE04A550
:1003100015A50D931C93D195C195D10980A191A1EB
:10032000C81BD90BC4A7D5A7CE01B90173D45B01F3
:10033000C601B9016FD46501C60ED71EC701B90148
:1003400069D47601E60EF71EC801B90163D4E60E42
:10035000F71EE082F18220893189C29FC001C39FCC
:10036000900DD29F900D1124CAE0D0E0BE0152D46E
:100370009B016483758364A975A942895389649F2D
:10038000C001659F900D749F900D1124BE0142D451
:1003900066837783260F371F248F358FDF91CF91A8
:1003A0001F910F91FF90EF90DF90CF90BF90AF9093
:1003B0000895E0E0F8E083E0808381838283838393
:1003C0008181806181838181806281838181806478
:1003D00081838181806881838FE0A0E4B6E01196FB
:1003E0008C9310AE11AE12AE13AE14AE15AE1092C9
:1003F0003E0810923F0889E298E686A397A363E03F
:1004000080E098E0E8C3E0E0F8E0818181838181C9
:10041000818381818183818181830895E0E0F8E097
:10042000E485E0FF0EC0E0E0F8E0A1E0A48780AF43
:1004300091AF62AF73AF44AF55AF20933E08309396
:100440003F0808958091E6209091E7209C01215D6E
:1004500037402F323840C8F4880F991F880F991FF2
:1004600060916E2070916F20E0911F20F09120200C
:100470009C01260F371FAC014E0F5F1FDC01A61B2E
:10048000B70BBD018E1B9F0BC9CF20E030E040E0D1
:1004900050E060E070E080E090E0C0CF85E090E068
:1004A0008093132090931420109215201092162000
:1004B00080931720909318208CE090E08093622026
:1004C0009093632088E190E080936420909365206E
:1004D000109266201092672088EC90E08093332081
:1004E00090933420809382209093832080931A21CC
:1004F00090931B210895AF92BF92DF92EF92FF92EB
:100500000F931F93CF93DF930F2EF0E8EF2EF6E0BB
:10051000FF2EF02D6894DD24D4F8F701D68206EE84
:1005200010E2F801818190E0D9D2D82FF0E0CF2FEE
:10053000F801C083D18380E090E0D0D28C0F9D1F62
:10054000F801808391830F2EF0E7AF2EF0E2BF2EEB
:10055000F02DF501818190E0C1D2D82FF0E0CF2FAE
:1005600005E210E2F801C083D183F5018081918119
:100570009927B4D28C0F9D1FF801808391830F2E91
:10058000F1E2AF2EF0E2BF2EF02DF501818190E077
:10059000A5D2D82FF0E0CF2F04E710E2F801C083F6
:1005A000D183F50180819181992798D28C0F9D1F6D
:1005B000F801808391830F2EF8E0AF2EF1E2BF2E79
:1005C000F02DF501818190E089D2D82FF0E0CF2F76
:1005D0000CE011E2F801C083D183F50180819181A3
:1005E00099277CD28C0F9D1FF80180839183CEE6E2
:1005F000D0E2898190E072D2182F00E00F2EF8E649
:10060000AF2EF0E2BF2EF02DF5010083118388811B
:100610009981992763D2800F911FF501808391837F
:10062000898190E05BD2182F00E00F2EFAE6AF2E02
:10063000F0E2BF2EF02DF5010083118388819981AE
:1006400099274CD2800F911FF50180839183898176
:1006500090E044D2182F00E00F2EFCE6AF2EF0E21F
:10066000BF2EF02DF5010083118388819981992790
:1006700035D2800F911FF50180839183898190E0AD
:100680002DD210924F2080935020888199819927F4
:1006900025D220914F2030915020820F931F8093BC
:1006A0004F20909350208CEC90E018D280935120F2
:1006B0008CEC90E013D280935120F701D582809189
:1006C0004F2090915020DF91CF911F910F91FF907B
:1006D000EF90DF90BF90AF9008950F931F93CF934B
:1006E000DF93C0EAD6E010E11E8380E090E003D201
:1006F00082E690E000D280E090E0FDD1082F80E01B
:1007000090E0F9D1302F20E0822B932B8093212091
:100710009093222080E090E0EED1082F83E690E0D5
:10072000EAD1302F20E0822B932B8093702090937E
:10073000712080E090E0DFD1082F80E090E0DBD1F5
:10074000302F20E0822B932B809308219093092156
:1007500080E090E0D0D18CE590E0CDD180E090E0D9
:10076000CAD1082F80E090E0C6D1302F20E0822B44
:10077000932B809372209093732080E090E0BBD104
:10078000082F8DE590E0B7D1302F20E0822B932BFE
:10079000809323209093242080E090E0ACD1082F18
:1007A00080E090E0A8D1302F20E0822B932B809323
:1007B0000A2190930B2180E090E09DD180E090E0B1
:1007C0009AD11D83DF91CF911F910F910895809150
:1007D00036219091372101968093362190933721CD
:1007E0007CDF30DE82E590E22ADD80913621909137
:1007F00037214F9728F07FDE109236211092372153
:100800000895E0E5F0E0808182608083818181FF4E
:10081000FDCF88ED84BF81E0809340000895E0E043
:10082000F9E083E08083118288E092E586A397A3B4
:1008300081E08683E0EAF0E082818160828308952E
:100840001F93CF93DF93C0EAD6E010E11E8381E0CF
:1008500090E051D18CEA90E04ED180E090E04BD115
:1008600080E090E048D180E090E045D180E090E0E9
:1008700042D18FE891E00197F1F700C0000081E0DC
:1008800090E039D18FEA90E036D180E090E033D12A
:1008900080E090E030D180E090E02DD180E090E0E9
:1008A0002AD18FE891E00197F1F700C0000081E0C4
:1008B00090E021D180EB90E01ED180E090E01BD150
:1008C00080E090E018D180E090E015D180E090E0E9
:1008D00012D18FE891E00197F1F700C0000081E0AC
:1008E00090E009D18DEA90E006D180E090E003D15C
:1008F00080E090E000D180E090E0FDD080E090E0EA
:10090000FAD01D8381E0DF91CF911F910895CF939D
:10091000DF93C0E0D6E08FEF8983789462D1F8D07E
:10092000BDDD8EDF2FEF8FE493EC215080409040AF
:10093000E1F700C0000084DF198281E0DF91CF91F0
:1009400008958FE0E0E0F6E087831092022059DFFF
:1009500066DFDDDF0000FECF1F93CF93DF93809132
:100960000220823069F130F4882359F0813009F097
:100970007BC015C0843009F441C0853009F074C0D3
:1009800044C0E0E0F6E0178284E08783C0DF813076
:1009900011F480930220E0E0F6E0158265C09DDE50
:1009A00088E0E0E0F6E08783A6DD019709F448DF00
:1009B000A2DD029709F058C082E08093022054C063
:1009C000C0E0D6E01F8214E01F83F3DC1093022006
:1009D0001F832FEF37EA81E6215030408040E1F756
:1009E00000C000001F839FEF27EA31E691502040AE
:1009F0003040E1F700C000001F8336C0E0E0F6E0C1
:100A0000168288E08783E3DE2FC0FDDCE0E0F6E0BD
:100A100084E087839FEF27EA31E691502040304001
:100A2000E1F700C0000087839FEF27EA31E691508D
:100A300020403040E1F700C0000087839FEF27EAA5
:100A400031E6915020403040E1F700C0000087833C
:100A50009FEF27EA31E6915020403040E1F700C097
:100A60000000878310920220DF91CF911F9108959B
:100A70001F920F920FB60F92112408B60F9218BE54
:100A800009B60F9219BE0BB60F921BBE2F933F9360
:100A90004F935F936F937F938F939F93AF93BF9386
:100AA000EF93FF9359DFE0E0F9E010A211A2FF916C
:100AB000EF91BF91AF919F918F917F916F915F91D6
:100AC0004F913F912F910F900BBE0F9009BE0F9049
:100AD00008BE0F900FBE0F901F901895E0ECFAE043
:100AE000838382818823ECF780E48A95F1F7E0EC38
:100AF000FAE083810895E0ECFBE083838281882320
:100B0000ECF780E28A95F1F7E0ECFBE08381089551
:100B1000AF92CF92EF920F93CF93DF93E0EAF6E09C
:100B2000C0E1C183D8E3D48BC5830F2EF3E0AF2E91
:100B3000F02DC12CE12C00E020E040EA56E060EC12
:100B40007BE088E391E21DD0E0ECFBE01382E0E87B
:100B5000F6E0C183D48BC5836894AA24A1F820E071
:100B600040E856E060EC7AE08FE391E20AD0E0ECF6
:100B7000FAE01382DF91CF910F91EF90CF90AF9079
:100B80000895AF92CF92EF920F93FC01608371832F
:100B9000428353831482CC2011F090E801C090E08E
:100BA000222311F080E201C080E000650A29092BB0
:100BB000082BDB010C93A081B1811196EC92158278
:100BC00016820280F381E02D80EA81830F91EF90FD
:100BD000CF90AF900895FC012081207F622B60832D
:100BE0000895E0E6F6E090E4928380E88183E0E413
:100BF000F6E092838183E0EBF9E08BE0858387E187
:100C0000868384EA87838481806184838481886089
:100C10008483089597FB072E16F4009406D077FD81
:100C200008D00BD007FC05D03EF4909581959F4FDE
:100C30000895709561957F4F0895AA1BBB1B51E1E4
:100C400007C0AA1FBB1FA617B70710F0A61BB70B3C
:100C5000881F991F5A95A9F780959095BC01CD01E1
:060C60000895F894FFCF97
:020C66000A0082
:00000001FF
