:10000000F9C000001BC1000019C1000017C10000A9
:1000100015C1000013C1000011C100000FC1000094
:100020000DC100000BC1000009C1000007C10000A4
:1000300005C1000003C1000001C10000FFC00000B5
:10004000FDC00000FBC00000F9C00000F7C00000C8
:10005000F5C00000F3C00000F1C00000EFC00000D8
:10006000EDC00000EBC00000E9C00000E7C00000E8
:10007000E5C00000E3C00000E1C00000DFC00000F8
:10008000DDC00000DBC00000D9C00000D7C0000008
:10009000D5C00000D3C00000D1C00000CFC0000018
:1000A000CDC00000CBC00000C9C00000C7C0000028
:1000B000C5C00000C3C00000C1C00000BFC0000038
:1000C000BDC00000BBC00000B9C00000B7C0000048
:1000D000B5C00000B3C00000B1C00000AFC0000058
:1000E000ADC00000ABC00000A9C00000A7C0000068
:1000F000A5C00000A3C00000A1C000009FC0000078
:100100009DC000009BC0000099C0000097C0000087
:1001100095C0000093C0000091C000008FC0000097
:100120008DC000008BC0000089C0000087C00000A7
:1001300085C00000D9C3000081C000007FC000005E
:100140007DC000007BC0000079C0000077C00000C7
:1001500075C0000073C0000071C000006FC00000D7
:100160006DC000006BC0000069C0000067C00000E7
:1001700065C0000063C0000061C000005FC00000F7
:100180005DC000005BC0000059C0000057C0000007
:1001900055C0000053C0000051C000004FC0000017
:1001A0004DC000004BC0000049C0000047C0000027
:1001B00045C0000043C0000041C000003FC0000037
:1001C0003DC000003BC0000039C0000037C0000047
:1001D00035C0000033C0000031C000002FC0000057
:1001E0002DC000002BC0000029C0000027C0000067
:1001F00025C0000011241FBECFEFDFE3DEBFCDBF5F
:1002000000E00CBF18BE19BE1ABE1BBE10E2A0E073
:10021000B0E2E8EDFAE000E00BBF02C007900D92FB
:10022000A030B107D9F71BBE21E2A0E0B0E201C0C7
:100230001D92AB32B207E1F713D34CC4E1CECF939A
:10024000DF93FC01C2ADD3ADC0AFD1AF64AD75AD2E
:1002500062AF73AF40A551A544AF55AF848D958D66
:1002600022273327281B390B20A731A7C60FD71FFA
:10027000C40FD51FC81BD90BC0ABD1AB4289538962
:10028000249FC001259F900D349F900D11246AE09A
:1002900070E0F9D39B016083718344895589C49FC1
:1002A000C001C59F900DD49F900D112462E370E0B2
:1002B000EAD362837383260F371F208F318FDF913C
:1002C000CF910895E0E0F8E083E08083818382832A
:1002D0008383818180618183818180628183818147
:1002E000806481838181806881838FE0A0E4B6E0AF
:1002F00011968C9310AE11AE12AE13AE14AE15AEB5
:1003000010923E0810923F0889E298E686A397A3D0
:1003100063E080E098E098C3E0E0F8E0E485E0FF87
:100320000EC0E0E0F8E0A1E0A48780AF91AF62AF3B
:1003300073AF44AF55AF20933E0830933F08089504
:100340008091D3209091D4209C01215D37402F32A1
:100350003840C8F4880F991F880F991F60911A20A0
:1003600070911B20E0916120F09162209C01260F8A
:10037000371FAC014E0F5F1FDC01A61BB70BBD0181
:100380008E1B9F0BC9CF20E030E040E050E060E0E2
:1003900070E080E090E0C0CF85E090E080930E2098
:1003A00090930F2010921020109211208093122011
:1003B00090931320809355209093562010925720AD
:1003C000109258208093592090935A2088EC90E006
:1003D00080932E2090932F208093752090937620E9
:1003E00080930121909302210895AF92BF92CF9202
:1003F000DF92FF920F931F93CF93DF9300E816E0F5
:100400006894FF24F4F8F801F6820F2EF3EDCF2E56
:10041000F0E2DF2EF02DF601818190E09BD2D82F03
:10042000F0E0CF2FF601C083D18380E090E092D23C
:100430008C0F9D1FF601808391830F2EF3E6AF2E64
:10044000F0E2BF2EF02DF501818190E083D2D82F0C
:10045000F0E0CF2F0F2EF0E2CF2EF0E2DF2EF02DC6
:10046000F601C083D183F50180819181992772D2F1
:100470008C0F9D1FF601808391830F2EFCE1AF2E20
:10048000F0E2BF2EF02DF501818190E063D2D82FEC
:10049000F0E0CF2F0F2EF7E6CF2EF0E2DF2EF02D7B
:1004A000F601C083D183F50180819181992752D2D1
:1004B0008C0F9D1FF601808391830F2EFFEEAF2ED0
:1004C000F0E2BF2EF02DF501818190E043D2D82FCC
:1004D000F0E0CF2F0F2EF3EFCF2EF0E2DF2EF02D36
:1004E000F601C083D183F50180819181992732D2B1
:1004F0008C0F9D1FF601808391830F2EF5E6AF2EA2
:10050000F0E2BF2EF02DF501818190E023D2D82FAB
:10051000F0E0CF2F0F2EFBE5CF2EF0E2DF2EF02DF7
:10052000F601C083D183F50180819181992712D290
:100530008C0F9D1FF601808391830F2EF1E7AF2E64
:10054000F0E2BF2EF02DF501818190E003D2D82F8B
:10055000F0E0CF2F0F2EFDE5CF2EF0E2DF2EF02DB5
:10056000F601C083D183F501808191819927F2D171
:100570008C0F9D1FF601808391830F2EF1E6AF2E25
:10058000F0E2BF2EF02DF501818190E0E3D1D82F6C
:10059000F0E0CF2F0F2EFFE5CF2EF0E2DF2EF02D73
:1005A000F601C083D183F501808191819927D2D151
:1005B0008C0F9D1FF601808391838CEC90E0CAD153
:1005C000809348208CEC90E0C5D180934820F801BE
:1005D000F582DF91CF911F910F91FF90DF90CF9027
:1005E000BF90AF9008950F931F93CF93DF93C0EA0E
:1005F000D6E010E11E8380E090E0B9D182E690E081
:10060000B6D180E090E0B3D1082F80E090E0AFD188
:10061000302F20E0822B932B80931C2090931D2061
:1006200080E090E0A4D1082F83E690E0A0D1302FA5
:1006300020E0822B932B809363209093642080E0B2
:1006400090E095D1082F80E090E091D1302F20E00C
:10065000822B932B8093EF209093F02080E090E00A
:1006600086D18CE590E083D180E090E080D1082FA6
:1006700080E090E07CD1302F20E0822B932B809380
:1006800065209093662080E090E071D1082F8DE581
:1006900090E06DD1302F20E0822B932B80931E2091
:1006A00090931F2080E090E062D1082F80E090E0DE
:1006B0005ED1302F20E0822B932B8093F1209093FA
:1006C000F22080E090E053D189E790E050D11D8383
:1006D000DF91CF911F910F91089580911B219091EF
:1006E0001C21019680931B2190931C217CDF28DE26
:1006F00089E490E2A4DD80911B2190911C21449714
:1007000028F073DE10921B2110921C210895E0E561
:10071000F0E0808182608083818181FFFDCF88ED60
:1007200084BF81E0809340000895E0E0F9E083E039
:100730008083118280EC9DE586A397A381E0868368
:10074000E0EAF0E082818160828308951F93CF9375
:10075000DF93C0EAD6E010E11E8381E090E007D18C
:100760008CEA90E004D180E090E001D180E090E05C
:10077000FED080E090E0FBD080E090E0F8D08FE801
:1007800091E00197F1F700C0000081E090E0EFD028
:100790008FEA90E0ECD080E090E0E9D080E090E05B
:1007A000E6D080E090E0E3D080E090E0E0D08FE819
:1007B00091E00197F1F700C0000081E090E0D7D010
:1007C00080EB90E0D4D080E090E0D1D080E090E069
:1007D000CED080E090E0CBD080E090E0C8D08FE831
:1007E00091E00197F1F700C0000081E090E0BFD0F8
:1007F0008DEA90E0BCD080E090E0B9D080E090E05D
:10080000B6D080E090E0B3D080E090E0B0D01D831F
:1008100081E0DF91CF911F9108958FEFE0E0F6E046
:100820008183789474DF16D1AFD0B6DD4BDD12D161
:100830008DDF2FEF8FE493EC215080409040E1F763
:1008400000C0000083DF2FEF8FE493EC2150804045
:100850009040E1F700C0000079DF67DF81E0089594
:10086000DCDF0000FECF80910020909101208130DC
:100870009105C1F01CF4892B39F00895823091055F
:10088000E1F0049781F52AC0C8DF813061F581E08D
:1008900090E0809300209093012081E0E0E0F6E07A
:1008A00087830895A0DE52DF8130E9F482E090E092
:1008B0008093002090930120089504DD84E090E06F
:1008C00080930020909301202FEF89E698E121503A
:1008D00080409040E1F700C0000008958FE0E0E024
:1008E000F6E08783FACE08951F920F920FB60F920B
:1008F000112408B60F9218BE09B60F9219BE0BB696
:100900000F921BBE2F933F934F935F936F937F93F1
:100910008F939F93AF93BF93EF93FF93A4DFE0E098
:10092000F9E010A211A2FF91EF91BF91AF919F91B9
:100930008F917F916F915F914F913F912F910F9088
:100940000BBE0F9009BE0F9008BE0F900FBE0F9008
:100950001F901895E0ECFAE0838382818823ECF7FE
:1009600080E48A95F1F7E0ECFAE083810895E0EC09
:10097000FBE0838382818823ECF780E28A95F1F79C
:10098000E0ECFBE083810895AF92CF92EF920F935A
:10099000CF93DF93E0EAF6E0C0E1C183D8E3D48BE4
:1009A000C583A12CC12CE12C00E020E040EA56E0F8
:1009B00060EC7BE08DE191E21DD0E0ECFBE0138286
:1009C000E0E8F6E0C183D48BC5836894AA24A1F83B
:1009D00020E040E856E060EC7AE084E291E20AD060
:1009E000E0ECFAE01382DF91CF910F91EF90CF907E
:1009F000AF900895AF92CF92EF920F93FC01608376
:100A00007183428353831482CC2011F090E801C09B
:100A100090E0222311F080E201C080E000650A2905
:100A2000092B082BDB010C93A081B1811196EC926C
:100A3000158216820280F381E02D80EA81830F9176
:100A4000EF90CF90AF900895FC012081207F622B22
:100A500060830895E0E6F6E090E4928380E8818385
:100A6000E0E4F6E092838183E0EBF9E08BE08583BC
:100A700087E1868384EA878384818061848384819B
:100A800088608483089597FB072E16F4009406D09F
:100A900077FD08D00BD007FC05D03EF490958195EA
:100AA0009F4F0895709561957F4F0895AA1BBB1BBA
:100AB00051E107C0AA1FBB1FA617B70710F0A61B5E
:100AC000B70B881F991F5A95A9F780959095BC017F
:080AD000CD010895F894FFCF59
:00000001FF
