:10000000F9C000001BC1000019C1000017C10000A9
:1000100015C1000013C1000011C100000FC1000094
:100020000DC100000BC1000009C1000007C10000A4
:1000300005C1000003C1000001C10000FFC00000B5
:10004000FDC00000FBC00000F9C00000F7C00000C8
:10005000F5C00000F3C00000F1C00000EFC00000D8
:10006000EDC00000EBC00000E9C00000E7C00000E8
:10007000E5C00000E3C00000E1C00000DFC00000F8
:10008000DDC00000DBC00000D9C00000D7C0000008
:10009000D5C00000D3C00000D1C00000CFC0000018
:1000A000CDC00000CBC00000C9C00000C7C0000028
:1000B000C5C00000C3C00000C1C00000BFC0000038
:1000C000BDC00000BBC00000B9C00000B7C0000048
:1000D000B5C00000B3C00000B1C00000AFC0000058
:1000E000ADC00000ABC00000A9C00000A7C0000068
:1000F000A5C00000A3C00000A1C000009FC0000078
:100100009DC000009BC0000099C0000097C0000087
:1001100095C0000093C0000091C000008FC0000097
:100120008DC000008BC0000089C0000087C00000A7
:1001300085C0000097C4000081C000007FC000009F
:100140007DC000007BC0000079C0000077C00000C7
:1001500075C0000073C0000071C000006FC00000D7
:100160006DC000006BC0000069C0000067C00000E7
:1001700065C0000063C0000061C000005FC00000F7
:100180005DC000005BC0000059C0000057C0000007
:1001900055C0000053C0000051C000004FC0000017
:1001A0004DC000004BC0000049C0000047C0000027
:1001B00045C0000043C0000041C000003FC0000037
:1001C0003DC000003BC0000039C0000037C0000047
:1001D00035C0000033C0000031C000002FC0000057
:1001E0002DC000002BC0000029C0000027C0000067
:1001F00025C0000011241FBECFEFDFE3DEBFCDBF5F
:1002000000E00CBF18BE19BE1ABE1BBE10E2A0E073
:10021000B0E2ECEAFCE000E00BBF02C007900D92F8
:10022000A630B107D9F71BBE21E2A6E0B0E201C0BB
:100230001D92AF38B207E1F7BFD336C5E1CEAF921A
:10024000BF92CF92DF92EF92FF920F931F93CF93C3
:10025000DF93FC01A2ACB3ACA0AEB1AEC4ACD5ACE4
:10026000C2AED3AEE4A4F5A4E4AEF5AEDC01AE5A62
:10027000BF4F26A137A18D919C91820F931F268D90
:10028000378D821B930B0AE010E0B801E6D4EB0136
:1002900064A775A72091042030910520C501B901FC
:1002A000DCD45B01C601B901D8D46501C60ED71EE6
:1002B000C701B901D2D47601E60EF71ECE01B9010D
:1002C000CCD46E0D7F1D64AB75AB86899789C89FB2
:1002D0009001C99F300DD89F300D1124228733879C
:1002E000408D518D649FC001659F900D749F900D4E
:1002F000112484879587820F931FDF01A45BBF4F72
:100300008D939C93EF01C05CDF4F2881398126AF2C
:1003100037AFDF01AE5BBF4F2D913C911197288322
:10032000398326A537A52D933C9322A133A1821BA7
:10033000930BB80192D466A777A720893189629F71
:10034000C001639F900D729F900D1124848395834B
:1003500016821782848F958FDF91CF911F910F9115
:10036000FF90EF90DF90CF90BF90AF900895E0E0C6
:10037000F8E083E08083818382838383818180614D
:100380008183818180628183818180648183818195
:10039000806881838FE0A0E4B6E011968C9310AE64
:1003A00011AE12AE13AE14AE15AE10923E081092FE
:1003B0003F0889E298E686A397A363E080E098E08F
:1003C00019C4E0E0F8E0E485E0FF0EC0E0E0F8E00A
:1003D000A1E0A48780AF91AF62AF73AF44AF55AFD8
:1003E00020933E0830933F08089580911221909108
:1003F00013219C01215D37402F323840B8F4880F1B
:10040000991F880F991F6091882070918920E09131
:100410002620F09127209C01261B370BAC014E1B98
:100420005F0B680F791F8E0F9F1FCBCF805D9740AA
:100430008F32984048F020E030E040E050E060E04B
:1004400070E080E090E0BDCF089584E090E080937C
:1004500020209093212023E030E02093222030932D
:10046000232080931A2090931B2010921C2010921E
:100470001D2088EC90E080933C2090933D20809359
:100480009E2090939F208093522190935321089512
:100490008CEC9CECD6D38091302090913120D1D33C
:1004A0008091282090912920CCC3AF92BF92CF9207
:1004B000DF92EF92FF920F931F93CF93DF9380E130
:1004C000E0E8F6E0868380E003D3D82F80E0C82FF1
:1004D00002E111E2F801C083D18380916120F8D25A
:1004E000C80FD11DF801C083D1830F2EFAE2EF2E81
:1004F000F0E2FF2EF02DF7018181EAD2D82FF0E053
:10050000CF2F00E310E2F801C083D183F70180818F
:10051000DFD2C80FD11DF801C083D1830F2EFCE8B4
:10052000EF2EF0E2FF2EF02DF7018181D1D2D82FEE
:10053000F0E0CF2F02E910E2F801C083D183F70188
:100540008081C6D2C80FD11DF801C083D1830F2E80
:10055000F0E4EF2EF1E2FF2EF02DF7018181B8D209
:10056000D82FF0E0CF2F06E411E2F801C083D18349
:10057000F7018081ADD2C80FD11DF801C083D183AE
:10058000E6E5F0E28081918199230CF4019695953E
:10059000879506E510E2F80180839183892F98D230
:1005A000D82FF0E0CF2F0F2EF2E8EF2EF0E2FF2E43
:1005B000F02DF701C083D183F801808189D2C80F63
:1005C000D11DF701C083D18300E910E2F8018181D8
:1005D0007FD2D82FF0E0CF2F0F2EF4E8CF2EF0E20D
:1005E000DF2EF02DF601C083D183F801808170D217
:1005F000C80FD11DF601C083D183C4E4D1E2898143
:1006000067D2182F00E00F2EF6E8AF2EF0E2BF2ED3
:10061000F02DF5010083118388815AD2080F111D36
:10062000F50100831183898153D210925E2080935B
:100630005F2088814DD220915E2030915F20280F6D
:10064000311D20935E2030935F2080E841D280935B
:10065000612080E83DD28093612080E1E0E8F6E00F
:100660008583F701408151814093202050932120C0
:10067000F601208131812093222030932320F5013F
:10068000808191818093242090932520409336216E
:1006900050933721209338213093392180933A2188
:1006A00090933B2180915E2090915F20DF91CF91CC
:1006B0001F910F91FF90EF90DF90CF90BF90AF9080
:1006C0000895CF9380E1E0EAF6E0868380E00ED2E1
:1006D00082E60CD280E00AD2C82F80E007D23C2FFD
:1006E00020E0282B2093282030932920C90199232A
:1006F0000CF401969595879580932A2090932B2052
:1007000080E0F4D1C82F83E6F1D13C2F20E0282BE4
:1007100020938A2030938B20C90199230CF40196F1
:100720009595879580938C2090938D2080E0DED1E5
:10073000C82F80E0DBD13C2F20E0282B20933E21E6
:1007400030933F21C90199230CF401969595879523
:10075000809340219093412180E0C8D18CE5C6D19F
:1007600080E0C4D1C82F80E0C1D13C2F20E0282BED
:1007700020932C2030932D20C90199230CF401964D
:100780009595879580932E2090932F2080E0AED171
:10079000C82F8DE5ABD13C2F20E0282B20938E2055
:1007A00030938F20C90199230CF401969595879574
:1007B000809390209093912080E098D1C82F80E082
:1007C00095D13C2F20E0282B2093422130934321C8
:1007D000C90199230CF4019695958795809344213E
:1007E0009093452180E082D180E080D180E1E0EAF1
:1007F000F6E08583CF9108958091742190917521C1
:10080000019680937421909375215BDF8CE690E2D2
:1008100016DD80E291E213DD8AE090E210DDE5DD95
:1008200037DE80917421909175214F9748F03DDE1D
:1008300080936A2090936B201092742110927521FE
:100840000895E0E5F0E0808182608083818181FF0E
:10085000FDCF88ED84BF81E0809340000895E0E003
:10086000F9E083E0808311828AE298E686A397A369
:1008700081E08683E0EAF0E08281816082830895EE
:100880001F93CF93DF93C0EAD6E010E11E8381E08F
:100890002DD1809361208CEA29D18093612080E062
:1008A00025D18093612080E021D18093612080E078
:1008B0001DD18093612080E019D1809361208FE861
:1008C00091E00197F1F700C0000081E00FD1809323
:1008D00061208FEA0BD18093612080E007D1809363
:1008E000612080E003D18093612080E0FFD080937D
:1008F000612080E0FBD0809361208FE891E0019738
:10090000F1F700C0000081E0F1D08093612080EB1E
:10091000EDD08093612080E0E9D08093612080E079
:10092000E5D08093612080E0E1D08093612080E079
:10093000DDD0809361208FE891E00197F1F700C04E
:10094000000081E0D3D0809361208DEACFD08093E6
:10095000612080E0CBD08093612080E0C7D080937D
:10096000612080E0C3D08093612080E0BFD080937D
:1009700061201D8381E0DF91CF911F9108957894CC
:100980003FD1C1D062DD7CDF2FEF8FE493EC2150AB
:1009900080409040E1F700C0000072DF10927221A9
:1009A0001092732110925C2010925D201092BE2054
:1009B0001092BF2081E008958FE0E0E0F6E08183AF
:1009C0008AEA809360203DDFDADF49DF0000FECF56
:1009D00081E0E0E0F6E0878380916020823079F169
:1009E00020F4813009F03DC00AC0843069F18A3AB0
:1009F000C1F5C5DF8130A9F58093602008952FEF00
:100A000083EC99E0215080409040E1F700C0000065
:100A100058DE4BDD80936A2090936B20019729F478
:100A200082E0E0E0F6E085832BDF80916A20909100
:100A30006B200297B1F482E080936020089597DCE8
:100A400084E080936020089582E0E0E0F6E0878310
:100A500080916A2090916B20069711F484E087833F
:100A6000CBCE08951F920F920FB60F92112408B6A5
:100A70000F9218BE09B60F9219BE0BB60F921BBE8D
:100A80002F933F934F935F936F937F938F939F9396
:100A9000AF93BF93EF93FF93E0E0F9E010A211A2B0
:100AA00097DFFF91EF91BF91AF919F918F917F91D0
:100AB0006F915F914F913F912F910F900BBE0F90CF
:100AC00009BE0F9008BE0F900FBE0F901F90189593
:100AD000E0ECFAE0838382818823ECF78AE28A954E
:100AE000F1F700C0E0ECFAE083810895E0ECFBE070
:100AF000838382818823ECF780E28A95F1F7E0EC2A
:100B0000FBE083810895AF92CF92EF920F93CF9342
:100B1000DF93E0EAF6E0C0E1C183D8E3D48BC5837C
:100B20000F2EF3E0AF2EF02DC12CE12C00E020E0E1
:100B300040EA56E060EC7BE08AE791E231D0E0ECFD
:100B4000FBE01382E0E4F6E0C183D48BC5836894B4
:100B5000AA24A1F820E040E456E060EC78E081E8C7
:100B600091E21ED0E0ECF8E01382E0E8F6E0C18309
:100B7000D48BC5830F2EF3E0AF2EF02D20E040E89C
:100B800056E060EC7AE088E891E20AD0E0ECFAE026
:100B90001382DF91CF910F91EF90CF90AF90089596
:100BA000AF92CF92EF920F93FC01608371834283E7
:100BB00053831482CC2011F090E801C090E02223EE
:100BC00011F080E201C080E000650A29092B082BA2
:100BD000DB010C93A081B1811196EC9215821682F3
:100BE0000280F381E02D80EA81830F91EF90CF9016
:100BF000AF900895FC012081207F622B60830895CF
:100C0000E0E6F6E090E4928380E88183E0E4F6E0B9
:100C100092838183E0EBF9E08BE0858387E1868333
:100C200084EA87838481806184838481886084836B
:100C30000895E0EBF9E0918195FFFDCF8093B00935
:100C40000895CF93DF93EC018D2F90E0F2DFCE017A
:100C50009927EFDFDF91CF91089597FB072E16F4C8
:100C6000009406D077FD08D00BD007FC05D03EF4E9
:100C7000909581959F4F0895709561957F4F089548
:100C8000AA1BBB1B51E107C0AA1FBB1FA617B707B2
:100C900010F0A61BB70B881F991F5A95A9F78095CE
:0C0CA0009095BC01CD010895F894FFCFA1
:060CAC00010000000A0037
:00000001FF
