:10000000F9C000001BC1000019C1000017C10000A9
:1000100015C1000013C1000011C100000FC1000094
:100020000DC100000BC1000009C1000007C10000A4
:1000300005C1000003C1000001C10000FFC00000B5
:10004000FDC00000FBC00000F9C00000F7C00000C8
:10005000F5C00000F3C00000F1C00000EFC00000D8
:10006000EDC00000EBC00000E9C00000E7C00000E8
:10007000E5C00000E3C00000E1C00000DFC00000F8
:10008000DDC00000DBC00000D9C00000D7C0000008
:10009000D5C00000D3C00000D1C00000CFC0000018
:1000A000CDC00000CBC00000C9C00000C7C0000028
:1000B000C5C00000C3C00000C1C00000BFC0000038
:1000C000BDC00000BBC00000B9C00000B7C0000048
:1000D000B5C00000B3C00000B1C00000AFC0000058
:1000E000ADC00000ABC00000A9C00000A7C0000068
:1000F000A5C00000A3C00000A1C000009FC0000078
:100100009DC000009BC0000099C0000097C0000087
:1001100095C0000093C0000091C000008FC0000097
:100120008DC000008BC0000089C0000087C00000A7
:1001300085C00000BFC4000081C000007FC0000077
:100140007DC000007BC0000079C0000077C00000C7
:1001500075C0000073C0000071C000006FC00000D7
:100160006DC000006BC0000069C0000067C00000E7
:1001700065C0000063C0000061C000005FC00000F7
:100180005DC000005BC0000059C0000057C0000007
:1001900055C0000053C0000051C000004FC0000017
:1001A0004DC000004BC0000049C0000047C0000027
:1001B00045C0000043C0000041C000003FC0000037
:1001C0003DC000003BC0000039C0000037C0000047
:1001D00035C0000033C0000031C000002FC0000057
:1001E0002DC000002BC0000029C0000027C0000067
:1001F00025C0000011241FBECFEFDFE3DEBFCDBF5F
:1002000000E00CBF18BE19BE1ABE1BBE10E2A0E073
:10021000B0E2EAEAFCE000E00BBF02C007900D92FA
:10022000AA30B107D9F71BBE21E2AAE0B0E201C0B3
:100230001D92A634B207E1F7A8D335C5E1CEAF923F
:10024000BF92CF92DF92EF92FF920F931F93CF93C3
:10025000DF93FC01C0ACD1ACC6AAD7AAE2ACF3AC28
:10026000E0AEF1AE02A513A502AF13AFC2A1D3A1B8
:10027000848D958DC81BD90BC2A7D3A720910020D0
:1002800030910120CE01B901E7D45B01C601B9016B
:10029000E3D46501C60ED71EC701B901DDD47601CE
:1002A000E60EF71EC801B901D7D4E60EF71EE282AA
:1002B000F382E688F788CE9DC001CF9D900DDE9D2C
:1002C000900D11246091042070910520C5D48B01FC
:1002D00042895389C49FC001C59F900DD49F900D42
:1002E00011246091022070910320B6D4060F171FCD
:1002F00040A151A1C801841B950B65E070E0ACD40E
:10030000EB0164A775A706AD17AD04AF15AFDF010C
:10031000A05CBF4FAD90BC901197A6AEB7AE6D93E9
:100320007C93CB01B90198D46B01C801B90194D475
:100330008601060F171FC501B9018ED4060F171FBE
:100340000C0D1D1D00831183EC9EC001ED9E900DD0
:10035000FC9E900D112460910820709109207CD49E
:100360009B0164837583408D518D049FC001059F5F
:10037000900D149F900D112460910620709107201C
:100380006BD466837783260F371F248F358FDF91D9
:10039000CF911F910F91FF90EF90DF90CF90BF9082
:1003A000AF900895E0E0F8E083E08083818382836A
:1003B0008383818180618183818180628183818166
:1003C000806481838181806881838FE0A0E4B6E0CE
:1003D00011968C9310AE11AE12AE13AE14AE15AED4
:1003E00010923E0810923F0889E298E686A397A3F0
:1003F00063E080E098E011C4E0E0F8E0818181836F
:100400008181818381818183818181830895E0E07D
:10041000F8E0E485E0FF0EC0E0E0F8E0A1E0A487AA
:1004200080AF91AF62AF73AF44AF55AF20933E083A
:1004300030933F0808958091EA209091EB209C0131
:10044000215D37402F323840C8F4880F991F880F3C
:10045000991F6091742070917520E0912720F09190
:1004600028209C01260F371FAC014E0F5F1FDC01B7
:10047000A61BB70BBD018E1B9F0BC9CF20E030E040
:1004800040E050E060E070E080E090E0C0CF85E0C8
:1004900090E080931B2090931C2010921D201092BE
:1004A0001E2080931F20909320208BE790E0809364
:1004B0006820909369208EE190E080936A20909369
:1004C0006B2010926C2010926D2088EC90E080934D
:1004D0003B2090933C2080938820909389208093A8
:1004E0001C2190931D210895AF92BF92CF92DF926D
:1004F000FF920F931F93CF93DF9300E816E0689469
:10050000FF24F4F8F801F6820F2EFAEECF2EF0E277
:10051000DF2EF02DF601818190E002D3D82FF0E09C
:10052000CF2FF601C083D18380E090E0F9D28C0F09
:100530009D1FF601808391830F2EF6E7AF2EF0E228
:10054000BF2EF02DF501818190E0EAD2D82FF0E0A6
:10055000CF2F0F2EFDE2CF2EF0E2DF2EF02DF60191
:10056000C083D183F501808191819927D9D28C0FE5
:100570009D1FF601808391830F2EF9E2AF2EF0E2EA
:10058000BF2EF02DF501818190E0CAD2D82FF0E086
:10059000CF2F0F2EFAE7CF2EF0E2DF2EF02DF6014F
:1005A000C083D183F501808191819927B9D28C0FC5
:1005B0009D1FF601808391830F2EFAE0AF2EF1E2AA
:1005C000BF2EF02DF501818190E0AAD2D82FF0E066
:1005D000CF2F0F2EFEE0CF2EF1E2DF2EF02DF60111
:1005E000C083D183F50180819181992799D28C0FA5
:1005F0009D1FF601808391830F2EF8E7AF2EF0E266
:10060000BF2EF02DF501818190E08AD2D82FF0E045
:10061000CF2F0F2EFEE6CF2EF0E2DF2EF02DF601CB
:10062000C083D183F50180819181992779D28C0F84
:100630009D1FF601808391830F2EF4E8AF2EF0E228
:10064000BF2EF02DF501818190E06AD2D82FF0E025
:10065000CF2F0F2EF0E7CF2EF0E2DF2EF02DF60198
:10066000C083D183F50180819181992759D28C0F64
:100670009D1FF601808391830F2EF4E7AF2EF0E2E9
:10068000BF2EF02DF501818190E04AD2D82FF0E005
:10069000CF2F0F2EF2E7CF2EF0E2DF2EF02DF60156
:1006A000C083D183F50180819181992739D28C0F44
:1006B0009D1FF60180839183CCE0D1E2898190E097
:1006C0002FD21092552080935620888199819927A6
:1006D00027D22091552030915620820F931F80936E
:1006E0005520909356208CEC90E01AD2809357209E
:1006F0008CEC90E015D280935720F801F582809120
:10070000552090915620DF91CF911F910F91FF902E
:10071000DF90CF90BF90AF9008950F931F93CF932A
:10072000DF93C0EAD6E010E11E8380E090E005D2BE
:1007300082E690E002D280E090E0FFD1082F80E0D6
:1007400090E0FBD1302F20E0822B932B8093292047
:1007500090932A2080E090E0F0D1082F83E690E08B
:10076000ECD1302F20E0822B932B80937620909336
:10077000772080E090E0E1D1082F80E090E0DDD1AB
:10078000302F20E0822B932B80930A2190930B2112
:1007900080E090E0D2D18CE590E0CFD180E090E095
:1007A000CCD1082F80E090E0C8D1302F20E0822B00
:1007B000932B809378209093792080E090E0BDD1B6
:1007C000082F8DE590E0B9D1302F20E0822B932BBC
:1007D00080932B2090932C2080E090E0AED1082FC6
:1007E00080E090E0AAD1302F20E0822B932B8093E1
:1007F0000C2190930D2180E090E09FD180E090E06B
:100800009CD11D83DF91CF911F910F91089580910D
:10081000362190913721019680933621909337218C
:100820007CDF09DE88E590E20ADD80913621909137
:1008300037214F9748F058DE84E0E0E0F6E0878308
:1008400010923621109237210895E0E5F0E0808182
:1008500082608083818181FFFDCF88ED84BF81E04C
:10086000809340000895E0E0F9E083E08083118206
:1008700080E596E486A397A381E08683E0EAF0E032
:1008800082818160828308951F93CF93DF93C0EAB2
:10089000D6E010E11E8381E090E04FD18CEA90E039
:1008A0004CD180E090E049D180E090E046D180E0FA
:1008B00090E043D180E090E040D18FE891E0019753
:1008C000F1F700C0000081E090E037D18FEA90E0BE
:1008D00034D180E090E031D180E090E02ED180E012
:1008E00090E02BD180E090E028D18FE891E0019753
:1008F000F1F700C0000081E090E01FD180EB90E0B4
:100900001CD180E090E019D180E090E016D180E029
:1009100090E013D180E090E010D18FE891E0019752
:10092000F1F700C0000081E090E007D18DEA90E08F
:1009300004D180E090E001D180E090E0FED080E042
:1009400090E0FBD080E090E0F8D01D8381E0DF9163
:10095000CF911F910895CF93DF93C0E0D6E08FEF42
:100960008983789460D1F6D092DD8EDF2FEF8FE40B
:1009700093EC215080409040E1F700C0000084DFFC
:10098000198281E0DF91CF9108958FE0E0E0F6E0F9
:10099000878310920A2059DF66DFDDDF0000FECF7B
:1009A0001F93CF93DF9380910A20823069F130F456
:1009B000882359F0813009F079C015C0843009F4DA
:1009C00041C0853009F072C042C0E0E0F6E0178215
:1009D00084E08783C0DF813011F480930A20E0E057
:1009E000F6E0178263C099DE88E0E0E0F6E08783F6
:1009F0007BDD019709F448DF77DD029709F056C0E7
:100A000082E080930A2052C0C0E0D6E01F8214E04A
:100A10001F83C8DC10930A201F832FEF37EA81E67B
:100A2000215030408040E1F700C000001F839FEF5D
:100A300027EA31E6915020403040E1F700C0000045
:100A40001F8334C0E0E0F6E01682E1DE2FC0D4DC84
:100A5000E0E0F6E084E087839FEF27EA31E69150FB
:100A600020403040E1F700C0000087839FEF27EA75
:100A700031E6915020403040E1F700C0000087830C
:100A80009FEF27EA31E6915020403040E1F700C067
:100A9000000087839FEF27EA31E6915020403040E5
:100AA000E1F700C00000878310920A20DF91CF9108
:100AB0001F9108951F920F920FB60F92112408B63E
:100AC0000F9218BE09B60F9219BE0BB60F921BBE3D
:100AD0002F933F934F935F936F937F938F939F9346
:100AE000AF93BF93EF93FF935BDFE0E0F9E010A2D9
:100AF00011A2FF91EF91BF91AF919F918F917F9143
:100B00006F915F914F913F912F910F900BBE0F907E
:100B100009BE0F9008BE0F900FBE0F901F90189542
:100B2000E0ECFAE0838382818823ECF780E48A9505
:100B3000F1F7E0ECFAE083810895E0ECFBE08383D9
:100B400082818823ECF780E28A95F1F7E0ECFBE004
:100B500083810895AF92CF92EF920F93CF93DF935B
:100B6000E0EAF6E0C0E1C183D8E3D48BC5830F2E61
:100B7000F3E0AF2EF02DC12CE12C00E020E040EAA4
:100B800056E060EC7BE088E391E21DD0E0ECFBE016
:100B90001382E0E8F6E0C183D48BC5836894AA246D
:100BA000A1F820E040E856E060EC7AE08FE391E2C3
:100BB0000AD0E0ECFAE01382DF91CF910F91EF9031
:100BC000CF90AF900895AF92CF92EF920F93FC0128
:100BD00060837183428353831482CC2011F090E8A8
:100BE00001C090E0222311F080E201C080E00065A6
:100BF0000A29092B082BDB010C93A081B1811196E6
:100C0000EC92158216820280F381E02D80EA8183C6
:100C10000F91EF90CF90AF900895FC012081207F3D
:100C2000622B60830895E0E6F6E090E4928380E82A
:100C30008183E0E4F6E092838183E0EBF9E08BE0EE
:100C4000858387E1868384EA8783848180618483C6
:100C5000848188608483089597FB072E16F400949E
:100C600006D077FD08D00BD007FC05D03EF4909558
:100C700081959F4F0895709561957F4F0895AA1BA8
:100C8000BB1B51E107C0AA1FBB1FA617B70710F077
:100C9000A61BB70B881F991F5A95A9F780959095A9
:0A0CA000BC01CD010895F894FFCFC8
:0A0CAA000A00640064000A000A005A
:00000001FF
