:10000000F9C000001BC1000019C1000017C10000A9
:1000100015C1000013C1000011C100000FC1000094
:100020000DC100000BC1000009C1000007C10000A4
:1000300005C1000003C1000001C10000FFC00000B5
:10004000FDC00000FBC00000F9C00000F7C00000C8
:10005000F5C00000F3C00000F1C00000EFC00000D8
:10006000EDC00000EBC00000E9C00000E7C00000E8
:10007000E5C00000E3C00000E1C00000DFC00000F8
:10008000DDC00000DBC00000D9C00000D7C0000008
:10009000D5C00000D3C00000D1C00000CFC0000018
:1000A000CDC00000CBC00000C9C00000C7C0000028
:1000B000C5C00000C3C00000C1C00000BFC0000038
:1000C000BDC00000BBC00000B9C00000B7C0000048
:1000D000B5C00000B3C00000B1C00000AFC0000058
:1000E000ADC00000ABC00000A9C00000A7C0000068
:1000F000A5C00000A3C00000A1C000009FC0000078
:100100009DC000009BC0000099C0000097C0000087
:1001100095C0000093C0000091C000008FC0000097
:100120008DC000008BC0000089C0000087C00000A7
:1001300085C000007EC4000081C000007FC00000B8
:100140007DC000007BC0000079C0000077C00000C7
:1001500075C0000073C0000071C000006FC00000D7
:100160006DC000006BC0000069C0000067C00000E7
:1001700065C0000063C0000061C000005FC00000F7
:100180005DC000005BC0000059C0000057C0000007
:1001900055C0000053C0000051C000004FC0000017
:1001A0004DC000004BC0000049C0000047C0000027
:1001B00045C0000043C0000041C000003FC0000037
:1001C0003DC000003BC0000039C0000037C0000047
:1001D00035C0000033C0000031C000002FC0000057
:1001E0002DC000002BC0000029C0000027C0000067
:1001F00025C0000011241FBECFEFDFE3DEBFCDBF5F
:1002000000E00CBF18BE19BE1ABE1BBE10E2A0E073
:10021000B0E2E0E5FCE000E00BBF02C007900D9209
:10022000A230B107D9F71BBE21E2A2E0B0E201C0C3
:100230001D92AE34B207E1F7AED308C5E1CEAF925E
:10024000BF92CF92DF92EF92FF920F931F93CF93C3
:10025000DF93FC01C6A8D7A8C4AAD5AAE0ACF1AC2C
:10026000E6AAF7AA00A511A500AF11AF82A193A13C
:10027000268D378D821B930B0F2EFAE0AF2EB12CFB
:10028000F02DB501BCD4EB0160A771A7209100202F
:1002900030910120C601B901B2D46B01C701B90187
:1002A000AED47601E60EF71EC801B901A8D48701C5
:1002B000060F171FCE01B901A2D4600F711F60ABEA
:1002C00071AB86899789C89FA001C99F500DD89F9F
:1002D000500D112442875387A08DB18D6A9FC001B4
:1002E0006B9F900D7A9F900D112484879587840FC2
:1002F000951FDF01A85BBF4F8D939C93C4ACD5AC19
:10030000C2AED3AEE6ACF7ACE4AEF5AE02A513A533
:1003100006AF17AF40A151A1841B950BB5016FD457
:10032000EB0162A773A7CB01B90169D45B01C601D8
:10033000B90165D46501C60ED71EC701B9015FD4E6
:100340007601E60EF71EC801B90159D4E60EF71E74
:10035000E082F18280899189C89F9001C99F300D08
:10036000D89F300D11242483358362A973A9428953
:100370005389649FC001659F900D749F900D112457
:1003800086839783820F931F848F958FDF91CF9100
:100390001F910F91FF90EF90DF90CF90BF90AF90A3
:1003A0000895E0E0F8E083E08083818382838383A3
:1003B0008181806181838181806281838181806488
:1003C00081838181806881838FE0A0E4B6E011960B
:1003D0008C9310AE11AE12AE13AE14AE15AE1092D9
:1003E0003E0810923F0889E298E686A397A363E04F
:1003F00080E098E0CFC3E0E0F8E0E485E0FF0EC0E5
:10040000E0E0F8E0A1E0A48780AF91AF62AF73AF06
:1004100044AF55AF20933E0830933F080895809134
:10042000E8209091E9209C01215D37402F3238402F
:10043000B8F4880F991F880F991F609170207091F0
:100440007120E0911E20F0911F209C01261B370B8C
:10045000AC014E1B5F0B680F791F8E0F9F1FCBCF18
:1004600020E030E040E050E060E070E080E090E0CC
:10047000C2CF66E070E060936A2070936B2048E022
:1004800050E040936C2050936D2023E030E02093A7
:1004900064203093652082E090E080936620909302
:1004A00067206093062170930721409308215093A1
:1004B0000921209300213093012180930221909300
:1004C0000321609318207093192040931A205093B1
:1004D0001B2020931220309313208093142090939C
:1004E000152088EC90E08093302090933120809309
:1004F00082209093832080931E2190931F21089542
:100500008CEC9CEC70D380912420909125206BD3AF
:10051000809120209091212066C37F928F929F929C
:10052000AF92BF92CF92DF92EF92FF920F931F9301
:10053000CF93DF930F2EF0E88F2EF6E09F2EF02D55
:100540006894772474F8F401768208EE10E2F801DA
:100550008181A5D2D82FF0E0CF2FF801C083D183BD
:1005600080E09DD2C80FD11DF801C083D1830F2E2A
:10057000F0E2EF2EF0E2FF2EF02DF70181818FD215
:10058000D82FF0E0CF2F04E210E2F801C083D1832E
:10059000F701808184D2C80FD11DF801C083D183B7
:1005A0000F2EF2E7EF2EF0E2FF2EF02DF701818102
:1005B00076D2D82FF0E0CF2F06E710E2F801C08303
:1005C000D183F70180816BD2C80FD11DF801C083A0
:1005D000D1830F2EFEE0EF2EF1E2FF2EF02DF7017A
:1005E00081815DD2D82FF0E0CF2F02E111E2F80136
:1005F000C083D183F701808152D2C80FD11DF80189
:10060000C083D18302E210E2F801818148D2D82F61
:10061000F0E0CF2F0F2EFAE6AF2EF0E2BF2EF02D36
:10062000F501C083D183F801808139D2C80FD11D73
:10063000F501C083D18304E710E2F80181812FD254
:10064000D82FF0E0CF2F0F2EFCE6CF2EF0E2DF2EDA
:10065000F02DF601C083D183F801808120D2C80F2C
:10066000D11DF601C083D183C0E1D1E2898117D2C7
:10067000182F00E00F2EFEE6EF2EF0E2FF2EF02DF9
:10068000F7010083118388810AD2080F111DF70139
:1006900000831183898103D21092502080935120CE
:1006A0008881FDD12091502030915120280F311D9B
:1006B00020935020309351208CECF1D18093532023
:1006C0008CECEDD180935320F4017582F5014081CB
:1006D00051814093182050931920F60120813181D7
:1006E00020931A2030931B20F70180819181809301
:1006F0001C2090931D2040930621509307212093A6
:1007000008213093092180930A2190930B21809135
:10071000502090915120DF91CF911F910F91FF9028
:10072000EF90DF90CF90BF90AF909F908F907F9091
:1007300008950F931F93CF93DF93C0EAD6E010E1A3
:100740001E8380E0BAD182E6B8D180E0B6D1082F0E
:1007500080E0B3D1302F20E0282B2093202030934D
:10076000212080E0AAD1082F83E6A7D1302F20E0F6
:10077000282B209372203093732080E09ED1082F85
:1007800080E09BD1302F20E0282B20930E21309346
:100790000F2180E092D18CE590D180E08ED1082F9E
:1007A00080E08BD1302F20E0282B20932220309323
:1007B000232080E082D1082F8DE57FD1302F20E0EB
:1007C000282B209374203093752080E076D1082F59
:1007D00080E073D1302F20E0282B2093102130931C
:1007E000112180E06AD180E068D11D83DF91CF9133
:1007F0001F910F91089580913E2190913F21019684
:1008000080933E2190933F2194DF84E590E217DDB1
:1008100080EF90E214DD82E090E211DD00DE70DE18
:1008200080913E2190913F214F9728F076DE1092E3
:100830003E2110923F210895E0E5F0E08081826042
:100840008083818181FFFDCF88ED84BF81E080932B
:1008500040000895E0E0F9E083E0808311828AE2BD
:1008600098E686A397A381E08683E0EAF0E08281A0
:100870008160828308951F93CF93DF93C0EAD6E00F
:1008800010E11E8381E019D1809353208CEA15D1A9
:100890008093532080E011D18093532080E00DD1CC
:1008A0008093532080E009D18093532080E005D1CC
:1008B000809353208FE891E00197F1F700C000008A
:1008C00081E0FBD0809353208FEAF7D080935320B0
:1008D00080E0F3D08093532080E0EFD080935320CA
:1008E00080E0EBD08093532080E0E7D080935320CA
:1008F0008FE891E00197F1F700C0000081E0DDD0C2
:100900008093532080EBD9D08093532080E0D5D0C2
:100910008093532080E0D1D08093532080E0CDD0CD
:100920008093532080E0C9D0809353208FE891E0DA
:100930000197F1F700C0000081E0BFD08093532001
:100940008DEABBD08093532080E0B7D080935320B2
:1009500080E0B3D08093532080E0AFD080935320C9
:1009600080E0ABD0809353201D8381E0DF91CF9155
:100970001F910895789414D1ADD07BDD7CDF2FEFEB
:100980008FE493EC215080409040E1F700C00000DC
:1009900072DF81E008958FE0E0E0F6E081838AEA8B
:1009A0008093522049DFE6DF55DFFBDC0000FECFFD
:1009B0001F93CF93DF9388E0E0E0F6E08783809198
:1009C0005220823061F118F4813079F512C0843000
:1009D00059F18A3A51F581E0E0E0F6E08583CADF1B
:1009E000813011F48093522081E0E0E0F6E08683CC
:1009F0001CC082E0E0E0F6E087839BDE8EDD813084
:100A0000910539F4C0E0D6E012E01D8334DF1E8387
:100A10000CC0029751F482E08093522006C0C1DCE2
:100A200084E08093522001C0E6DEDF91CF911F91D8
:100A300008951F920F920FB60F92112408B60F92CD
:100A400018BE09B60F9219BE0BB60F921BBE2F939C
:100A50003F934F935F936F937F938F939F93AF9346
:100A6000BF93EF93FF93E0E0F9E010A211A2A0DFA3
:100A7000FF91EF91BF91AF919F918F917F916F9176
:100A80005F914F913F912F910F900BBE0F9009BE38
:100A90000F9008BE0F900FBE0F901F901895E0ECBE
:100AA000FAE0838382818823ECF78AE28A95F1F762
:100AB00000C0E0ECFAE083810895E0ECFBE0838382
:100AC00082818823ECF780E28A95F1F7E0ECFBE085
:100AD00083810895AF92CF92EF920F93CF93DF93DC
:100AE000E0EAF6E0C0E1C183D8E3D48BC5830F2EE2
:100AF000F3E0AF2EF02DC12CE12C00E020E040EA25
:100B000056E060EC7BE080E491E21AD0E0ECFBE0A0
:100B10001382E0E8F6E0C183D48BC58320E040E88F
:100B200056E060EC7AE087E491E20AD0E0ECFAE08B
:100B30001382DF91CF910F91EF90CF90AF900895F6
:100B4000AF92CF92EF920F93FC0160837183428347
:100B500053831482CC2011F090E801C090E022234E
:100B600011F080E201C080E000650A29092B082B02
:100B7000DB010C93A081B1811196EC921582168253
:100B80000280F381E02D80EA81830F91EF90CF9076
:100B9000AF900895FC012081207F622B608308952F
:100BA000E0E6F6E090E4928380E88183E0E4F6E01A
:100BB00092838183E0EBF9E08BE0858397E1968374
:100BC00084EA878396838783848180618483848198
:100BD000886084830895E0EBF9E0918195FFFDCF73
:100BE0008093B0090895CF93DF93EC018D2F90E0AF
:100BF000F2DFCE019927EFDFDF91CF91089597FBC8
:100C0000072E16F4009406D077FD08D00BD007FC11
:100C100005D03EF4909581959F4F0895709561950C
:100C20007F4F0895AA1BBB1B51E107C0AA1FBB1F22
:100C3000A617B70710F0A61BB70B881F991F5A9568
:100C4000A9F780959095BC01CD010895F894FFCF48
:020C50000A0098
:00000001FF
