:10000000F9C000001BC1000019C1000017C10000A9
:1000100015C1000013C1000011C100000FC1000094
:100020000DC100000BC1000009C1000007C10000A4
:1000300005C1000003C1000001C10000FFC00000B5
:10004000FDC00000FBC00000F9C00000F7C00000C8
:10005000F5C00000F3C00000F1C00000EFC00000D8
:10006000EDC00000EBC00000E9C00000E7C00000E8
:10007000E5C00000E3C00000E1C00000DFC00000F8
:10008000DDC00000DBC00000D9C00000D7C0000008
:10009000D5C00000D3C00000D1C00000CFC0000018
:1000A000CDC00000CBC00000C9C00000C7C0000028
:1000B000C5C00000C3C00000C1C00000BFC0000038
:1000C000BDC00000BBC00000B9C00000B7C0000048
:1000D000B5C00000B3C00000B1C00000AFC0000058
:1000E000ADC00000ABC00000A9C00000A7C0000068
:1000F000A5C00000A3C00000A1C000009FC0000078
:100100009DC000009BC0000099C0000097C0000087
:1001100095C0000093C0000091C000008FC0000097
:100120008DC000008BC0000089C0000087C00000A7
:1001300085C0000092C4000081C000007FC00000A4
:100140007DC000007BC0000079C0000077C00000C7
:1001500075C0000073C0000071C000006FC00000D7
:100160006DC000006BC0000069C0000067C00000E7
:1001700065C0000063C0000061C000005FC00000F7
:100180005DC000005BC0000059C0000057C0000007
:1001900055C0000053C0000051C000004FC0000017
:1001A0004DC000004BC0000049C0000047C0000027
:1001B00045C0000043C0000041C000003FC0000037
:1001C0003DC000003BC0000039C0000037C0000047
:1001D00035C0000033C0000031C000002FC0000057
:1001E0002DC000002BC0000029C0000027C0000067
:1001F00025C0000011241FBECFEFDFE3DEBFCDBF5F
:1002000000E00CBF18BE19BE1ABE1BBE10E2A0E073
:10021000B0E2E2EAFCE000E00BBF02C007900D9202
:10022000A230B107D9F71BBE21E2A2E0B0E201C0C3
:100230001D92A138B207E1F7CAD331C5E1CEAF9222
:10024000BF92CF92DF92EF92FF920F931F93CF93C3
:10025000DF93FC01A2ACB3ACA0AEB1AEC4ACD5ACE4
:10026000C2AED3AEE4A4F5A4E4AEF5AE86A197A1E8
:10027000268D378D821B930B0AE010E0B801E8D47D
:10028000EB0164A775A72091002030910120C501E2
:10029000B901DED45B01C601B901DAD46501C60E2D
:1002A000D71EC701B901D4D47601E60EF71ECE01E0
:1002B000B901CED46E0D7F1D64AB75AB868997896D
:1002C000C89F9001C99F300DD89F300D11242287FF
:1002D0003387408D518D649FC001659F900D749F41
:1002E000900D112484879587820F931FDF01A45BF3
:1002F000BF4F8D939C93EF01C05CDF4F2881398104
:1003000026AF37AFDF01AE5BBF4F2D913C91119708
:100310002883398326A537A52D933C9322A133A1A9
:10032000821B930BB80194D466A777A720893189E3
:10033000629FC001639F900D729F900D1124848372
:10034000958316821782848F958FDF91CF911F91AD
:100350000F91FF90EF90DF90CF90BF90AF900895F6
:10036000E0E0F8E083E0808381838283838381817E
:1003700080618183818180628183818180648183C6
:100380008181806881838FE0A0E4B6E011968C9330
:1003900010AE11AE12AE13AE14AE15AE10923E08F2
:1003A00010923F0889E298E686A397A363E080E075
:1003B00098E01BC4E0E0F8E0E485E0FF0EC0E0E078
:1003C000F8E0A1E0A48780AF91AF62AF73AF44AF14
:1003D00055AF20933E0830933F080895809108213F
:1003E000909109219C01215D37402F323840B8F4AB
:1003F000880F991F880F991F60918020709181202C
:10040000E0912220F09123209C01261B370BAC01A8
:100410004E1B5F0B680F791F8E0F9F1FCBCF805D28
:1004200097408F32984048F020E030E040E050E0C4
:1004300060E070E080E090E0BDCF089546E050E0DD
:1004400040937A2050937B2023E030E020937C205F
:1004500030937D2084E090E0809374209093752009
:10046000109276201092772040932A2150932B21CE
:1004700020932C2130932D218093242190932521AA
:10048000109226211092272140931C2050931D206A
:1004900020931E2030931F208093162090931720C6
:1004A000109218201092192088EC90E08093382048
:1004B00090933920809396209093972080934621A3
:1004C0009093472108958CEC9CECB6D380912C201E
:1004D00090912D20B1D38091242090912520ACC300
:1004E0007F928F929F92AF92BF92CF92DF92EF92C4
:1004F000FF920F931F93CF93DF930F2EF0E88F2E71
:10050000F6E09F2EF02D6894772474F8F40176823B
:1005100080E0D9D2D82FF0E0CF2F08E011E2F80127
:10052000C083D18380915B20CED2C80FD11DF8014A
:10053000C083D1830F2EF6E2EF2EF0E2FF2EF02DD6
:10054000F7018181C0D2D82FF0E0CF2F0CE210E26A
:10055000F801C083D183F7018081B5D2C80FD11DC6
:10056000F801C083D1830F2EF4E8EF2EF0E2FF2EC6
:10057000F02DF7018181A7D2D82FF0E0CF2F0AE824
:1005800010E2F801C083D183F70180819CD2C80FAB
:10059000D11DF801C083D1830F2EF4E3EF2EF1E2D9
:1005A000FF2EF02DF70181818ED2D82FF0E0CF2FD2
:1005B0000AE311E2F801C083D183F701808183D27D
:1005C000C80FD11DF801C083D1830AE210E2F801FF
:1005D000818179D2D82FF0E0CF2F0F2EFAE7AF2EFE
:1005E000F0E2BF2EF02DF501C083D183F8018081A8
:1005F0006AD2C80FD11DF501C083D18308E810E28B
:10060000F801818160D2D82FF0E0CF2F0F2EFCE7C8
:10061000CF2EF0E2DF2EF02DF601C083D183F8015A
:10062000808151D2C80FD11DF601C083D183C8E3A8
:10063000D1E2898148D2182F00E00F2EFEE7EF2E7D
:10064000F0E2FF2EF02DF7010083118388813BD269
:10065000080F111DF70100831183898134D2109294
:1006600058208093592088812ED220915820309193
:100670005920280F311D209358203093592080E8AD
:1006800022D280935B2080E81ED280935B20F4010D
:100690007582F5014081518140931C2050931D20AB
:1006A000F6012081318120931E2030931F20F70115
:1006B00080819181809320209093212040932A2152
:1006C00050932B2120932C2130932D2180932E2188
:1006D00090932F218091582090915920DF91CF91B4
:1006E0001F910F91FF90EF90DF90CF90BF90AF9050
:1006F0009F908F907F900895CF9380E1E0EAF6E09D
:10070000868380E0EED182E6ECD180E0EAD1C82F8A
:1007100080E0E7D13C2F20E0282B20932420309349
:100720002520C90199230CF401969595879580930E
:1007300026209093272080E0D4D1C82F83E6D1D102
:100740003C2F20E0282B2093822030938320C90166
:1007500099230CF401969595879580938420909326
:10076000852080E0BED1C82F80E0BBD13C2F20E0A7
:10077000282B2093322130933321C90199230CF483
:10078000019695958795809334219093352180E04B
:10079000A8D18CE5A6D180E0A4D1C82F80E0A1D15A
:1007A0003C2F20E0282B2093282030932920C901BA
:1007B00099230CF401969595879580932A20909320
:1007C0002B2080E08ED1C82F8DE58BD13C2F20E0EF
:1007D000282B2093862030938720C90199230CF47D
:1007E000019695958795809388209093892080E045
:1007F00078D1C82F80E075D13C2F20E0282B2093A2
:10080000362130933721C90199230CF4019695952F
:100810008795809338219093392180E062D180E0E0
:1008200060D180E1E0EAF6E08583CF910895809180
:1008300066219091672101968093662190936721AC
:100840005BDF84E690E2FBDC84E191E2F8DC86E0A9
:1008500090E2F5DCC3DD37DE80916621909167215F
:100860004F9728F03DDE109266211092672108957F
:10087000E0E5F0E0808182608083818181FFFDCFAF
:1008800088ED84BF81E0809340000895E0E0F9E0C6
:1008900083E0808311828AE298E686A397A381E0B1
:1008A0008683E0EAF0E082818160828308951F936D
:1008B000CF93DF93C0EAD6E010E11E8381E011D12F
:1008C00080935B208CEA0DD180935B2080E009D17E
:1008D00080935B2080E005D180935B2080E001D194
:1008E00080935B2080E0FDD080935B208FE891E0D7
:1008F0000197F1F700C0000081E0F3D080935B2006
:100900008FEAEFD080935B2080E0EBD080935B2078
:1009100080E0E7D080935B2080E0E3D080935B2091
:1009200080E0DFD080935B208FE891E00197F1F7C2
:1009300000C0000081E0D5D080935B2080EBD1D057
:1009400080935B2080E0CDD080935B2080E0C9D095
:1009500080935B2080E0C5D080935B2080E0C1D095
:1009600080935B208FE891E00197F1F700C00000D1
:1009700081E0B7D080935B208DEAB3D080935B2079
:1009800080E0AFD080935B2080E0ABD080935B2091
:1009900080E0A7D080935B2080E0A3D080935B2091
:1009A0001D8381E0DF91CF911F910895789423D129
:1009B000A5D044DD7CDF2FEF8FE493EC2150804005
:1009C0009040E1F700C0000072DF81E008958FE001
:1009D000E0E0F6E081838AEA80935A2049DFE6DF8F
:1009E00055DF0000FECF81E0E0E0F6E087838091F4
:1009F0005A20823039F118F4813071F50AC0843000
:100A000031F18A3A49F5D2DF813031F580935A20AD
:100A100008952FEF83EC99E0215080409040E1F75A
:100A200000C0000069DE5CDD8130910529F482E0C0
:100A3000E0E0F6E085833BCF029771F482E080939B
:100A40005A2008958DDC84E080935A20089582E036
:100A5000E0E0F6E08783EBCE08951F920F920FB689
:100A60000F92112408B60F9218BE09B60F9219BE44
:100A70000BB60F921BBE2F933F934F935F936F93D1
:100A80007F938F939F93AF93BF93EF93FF93E0E098
:100A9000F9E010A211A2A7DFFF91EF91BF91AF91F2
:100AA0009F918F917F916F915F914F913F912F9186
:100AB0000F900BBE0F9009BE0F9008BE0F900FBE97
:100AC0000F901F901895E0ECFAE0838382818823D1
:100AD000ECF78AE28A95F1F700C0E0ECFAE0838156
:100AE0000895E0ECFBE0838382818823ECF780E2C9
:100AF0008A95F1F7E0ECFBE083810895AF92CF9205
:100B0000EF920F93CF93DF93E0EAF6E0C0E1C18369
:100B1000D8E3D48BC5830F2EF3E0AF2EF02DC12C7C
:100B2000E12C00E020E040EA56E060EC7BE08CE65F
:100B300091E231D0E0ECFBE01382E0E4F6E0C18327
:100B4000D48BC5836894AA24A1F820E040E456E041
:100B500060EC78E083E791E21ED0E0ECF8E01382ED
:100B6000E0E8F6E0C183D48BC5830F2EF3E0AF2E0F
:100B7000F02D20E040E856E060EC7AE08AE791E270
:100B80000AD0E0ECFAE01382DF91CF910F91EF9061
:100B9000CF90AF900895AF92CF92EF920F93FC0158
:100BA00060837183428353831482CC2011F090E8D8
:100BB00001C090E0222311F080E201C080E00065D6
:100BC0000A29092B082BDB010C93A081B181119616
:100BD000EC92158216820280F381E02D80EA8183F7
:100BE0000F91EF90CF90AF900895FC012081207F6E
:100BF000622B60830895E0E6F6E090E4928380E85B
:100C00008183E0E4F6E092838183E0EBF9E08BE01E
:100C1000858387E1868384EA8783848180618483F6
:100C20008481886084830895E0EBF9E0918195FFE9
:100C3000FDCF8093B0090895CF93DF93EC018D2F02
:100C400090E0F2DFCE019927EFDFDF91CF91089599
:100C500097FB072E16F4009406D077FD08D00BD032
:100C600007FC05D03EF4909581959F4F08957095AF
:100C700061957F4F0895AA1BBB1B51E107C0AA1FB6
:100C8000BB1FA617B70710F0A61BB70B881F991F2D
:100C90005A95A9F780959095BC01CD010895F894D7
:020CA000FFCF84
:020CA2000A0046
:00000001FF
