S01600005053555F71756164636F707465722E737265637F
S1130000F9C000001BC1000019C1000017C10000A5
S113001015C1000013C1000011C100000FC1000090
S11300200DC100000BC1000009C1000007C10000A0
S113003005C1000003C1000001C10000FFC00000B1
S1130040FDC00000FBC00000F9C00000F7C00000C4
S1130050F5C00000F3C00000F1C00000EFC00000D4
S1130060EDC00000EBC00000E9C00000E7C00000E4
S1130070E5C00000E3C00000E1C00000DFC00000F4
S1130080DDC00000DBC00000D9C00000D7C0000004
S1130090D5C00000D3C00000D1C00000CFC0000014
S11300A0CDC00000CBC00000C9C00000C7C0000024
S11300B0C5C00000C3C00000C1C00000BFC0000034
S11300C0BDC00000BBC00000B9C00000B7C0000044
S11300D0B5C00000B3C00000B1C00000AFC0000054
S11300E0ADC00000ABC00000A9C00000A7C0000064
S11300F0A5C00000A3C00000A1C000009FC0000074
S11301009DC000009BC0000099C0000097C0000083
S113011095C0000093C0000091C000008FC0000093
S11301208DC000008BC0000089C0000087C00000A3
S113013085C00000ADC4000081C000007FC0000085
S11301407DC000007BC0000079C0000077C00000C3
S113015075C0000073C0000071C000006FC00000D3
S11301606DC000006BC0000069C0000067C00000E3
S113017065C0000063C0000061C000005FC00000F3
S11301805DC000005BC0000059C0000057C0000003
S113019055C0000053C0000051C000004FC0000013
S11301A04DC000004BC0000049C0000047C0000023
S11301B045C0000043C0000041C000003FC0000033
S11301C03DC000003BC0000039C0000037C0000043
S11301D035C0000033C0000031C000002FC0000053
S11301E02DC000002BC0000029C0000027C0000063
S11301F025C0000011241FBECFEFDFE3DEBFCDBF5B
S113020000E00CBF18BE19BE1ABE1BBE10E2A0E06F
S1130210B0E2E6E8FCE000E00BBF02C007900D92FC
S1130220A030B107D9F71BBE21E2A0E0B0E201C0C3
S11302301D92AC33B207E1F794D323C5E1CEAF925C
S1130240BF92CF92DF92EF92FF920F931F93CF93BF
S1130250DF93FC0180AD91AD86AB97ABC2ACD3AC60
S1130260C0AED1AEE2A4F3A4E2AEF3AEC2A1D3A178
S1130270268D378DC21BD30BC2A7D3A725E030E050
S1130280B901D8D48B01C601B901D4D4060F171F04
S1130290C701B901CFD4060F171FCE01B901CAD4C3
S11302A0060F171F02AB13AB26893789C29FC00103
S11302B0C39F900DD29F900D1124C4E6D0E0BE01DF
S11302C0B9D49B0162877387408D518D049FC0010F
S11302D0059F900D149F900D1124BE01ABD464872B
S11302E07587C0A9D1A96C177D0714F0C487D58779
S11302F004851585020F131F86AD97AD84AF95AFA6
S1130300DF01A05CBF4FAD90BC901197A6AEB7AE15
S1130310C4A4D5A4CD92DC9240A151A1041B150B19
S113032004A715A72AE030E0B90184D47B01C501F4
S1130330B90180D4E60EF71EC601B9017BD4E60EDE
S1130340F71EC801B90176D4E60EF71EE4AAF5AA91
S113035020893189029FC001039F900D129F900D47
S1130360112404E610E0B80165D49B01648375830D
S113037042895389E49EC001E59E900DF49E900D40
S11303801124B80157D46C177D071CF46683778356
S113039002C0C683D78386819781280F391F248F93
S11303A0358FDF91CF911F910F91FF90EF90DF90E8
S11303B0CF90BF90AF900895E0E0F8E083E08083B1
S11303C0818382838383818180618183818180624F
S11303D081838181806481838181806881838FE0CE
S11303E0A0E4B6E011968C9310AE11AE12AE13AE2B
S11303F014AE15AE10923E0810923F0889E298E6BA
S113040086A397A363E080E098E0F5C3E0E0F8E01A
S113041081818183818181838181818381818183C0
S11304200895E0E0F8E0E485E0FF0EC0E0E0F8E0E5
S1130430A1E0A48780AF91AF62AF73AF44AF55AF73
S113044020933E0830933F0808958091E0209091D6
S1130450E1209C01215D37402F323840C8F4880FD9
S1130460991F880F991F60916A2070916B20E09109
S11304701D20F0911E209C01260F371FAC014E0F4A
S11304805F1FDC01A61BB70BBD018E1B9F0BC9CFE1
S113049020E030E040E050E060E070E080E090E098
S11304A0C0CF85E090E080931120909312201092A9
S11304B013201092142080931520909316208BE41F
S11304C090E080935E2090935F208EE190E0809393
S11304D0602090936120109262201092632088EC37
S11304E090E0809331209093322080937E209093EB
S11304F07F20809312219093132108957F928F92ED
S11305009F92AF92BF92CF92DF92EF92FF920F939E
S11305101F93CF93DF930F2EF0E8AF2EF6E0BF2E9C
S1130520F02D6894772474F8F501768200EE10E2D9
S1130530F801818190E0E2D2D82FF0E0CF2FF801CA
S1130540C083D18380E090E0D9D28C0F9D1FF80145
S1130550808391830F2EFCE6EF2EF0E2FF2EF02D28
S1130560F701818190E0CAD2D82FF0E0CF2F03E2C7
S113057010E2F801C083D183F7018081918199272A
S1130580BDD28C0F9D1FF801808391830F2EFFE154
S1130590CF2EF0E2DF2EF02DF601818190E0AED275
S11305A0D82FF0E0CF2F0F2EF0E7EF2EF0E2FF2E42
S11305B0F02DF701C083D183F601808191819927C1
S11305C09DD28C0F9D1FF701808391830F2EF0E045
S11305D08F2EF1E29F2EF02DF401818190E08ED2D6
S11305E0D82EC12CC4E0D1E2C882D982F401808122
S11305F09181992783D28C0D9D1D88839983F7015E
S1130600818190E07BD2D82EC12C0F2EF4E68F2E60
S1130610F0E29F2EF02DF401C082D182F701808197
S1130620918199276BD28C0D9D1DF4018083918358
S1130630F801818190E062D2F82EE12C0F2EF6E6CB
S1130640CF2EF0E2DF2EF02DF601E082F182F801E8
S113065080819181992752D28E0D9F1DF60180834E
S11306609183898190E04AD2182F00E00F2EF8E69A
S1130670EF2EF0E2FF2EF02DF70100831183888125
S1130680998199273BD2800F911FF7018083918331
S1130690C2E0D1E2898190E031D210924B20809364
S11306A04C2088819981992729D220914B2030911F
S11306B04C20820F931F80934B2090934C208CEC02
S11306C090E01CD280934D208CEC90E017D2809364
S11306D04D20F501758280914B2090914C20DF9143
S11306E0CF911F910F91FF90EF90DF90CF90BF902B
S11306F0AF909F908F907F9008950F931F93CF9307
S1130700DF93C0EAD6E010E11E8380E090E003D2DC
S113071082E690E000D280E090E0FDD1082F80E0F6
S113072090E0F9D1302F20E0822B932B80931F206F
S11307309093202080E090E0EED1082F83E690E0B3
S1130740EAD1302F20E0822B932B80936C2090935E
S11307506D2080E090E0DFD1082F80E090E0DBD1D5
S1130760302F20E0822B932B809300219093012142
S113077080E090E0D0D18CE590E0CDD180E090E0B5
S1130780CAD1082F80E090E0C6D1302F20E0822B20
S1130790932B80936E2090936F2080E090E0BBD1E8
S11307A0082F8DE590E0B7D1302F20E0822B932BDA
S11307B0809321209093222080E090E0ACD1082FF8
S11307C080E090E0A8D1302F20E0822B932B8093FF
S11307D002219093032180E090E09DD180E090E09D
S11307E09AD11D83DF91CF911F910F91089580912C
S11307F02C2190912D21019680932C2190932D21D1
S11308007CDF23DE8EE490E21ADD80912C2190912E
S11308102D214F9728F072DE10922C2110922D2159
S11308200895E0E5F0E0808182608083818181FF2A
S1130830FDCF88ED84BF81E0809340000895E0E01F
S1130840F9E083E08083118288E092E586A397A390
S113085081E08683E0EAF0E082818160828308950A
S11308601F93CF93DF93C0EAD6E010E11E8381E0AB
S113087090E051D18CEA90E04ED180E090E04BD1F1
S113088080E090E048D180E090E045D180E090E0C5
S113089042D18FE891E00197F1F700C0000081E0B8
S11308A090E039D18FEA90E036D180E090E033D106
S11308B080E090E030D180E090E02DD180E090E0C5
S11308C02AD18FE891E00197F1F700C0000081E0A0
S11308D090E021D180EB90E01ED180E090E01BD12C
S11308E080E090E018D180E090E015D180E090E0C5
S11308F012D18FE891E00197F1F700C0000081E088
S113090090E009D18DEA90E006D180E090E003D137
S113091080E090E000D180E090E0FDD080E090E0C5
S1130920FAD01D8381E0DF91CF911F910895CF9379
S1130930DF93C0E0D6E08FEF8983789462D1F8D05A
S1130940B0DD8EDF2FEF8FE493EC21508040904098
S1130950E1F700C0000084DF198281E0DF91CF91CC
S113096008958FE0E0E0F6E087831092002059DFDD
S113097066DFDDDF0000FECF1F93CF93DF9380910E
S11309800020823069F130F4882359F0813009F075
S11309907BC015C0843009F441C0853009F074C0AF
S11309A044C0E0E0F6E0178284E08783C0DF813052
S11309B011F480930020E0E0F6E0158265C09DDE2E
S11309C088E0E0E0F6E0878399DD019709F448DFE9
S11309D095DD029709F058C082E08093002054C04E
S11309E0C0E0D6E01F8214E01F83E6DC10930020F1
S11309F01F832FEF37EA81E6215030408040E1F732
S1130A0000C000001F839FEF27EA31E69150204089
S1130A103040E1F700C000001F8336C0E0E0F6E09C
S1130A20168288E08783E3DE2FC0F0DCE0E0F6E0A6
S1130A3084E087839FEF27EA31E6915020403040DD
S1130A40E1F700C0000087839FEF27EA31E6915069
S1130A5020403040E1F700C0000087839FEF27EA81
S1130A6031E6915020403040E1F700C00000878318
S1130A709FEF27EA31E6915020403040E1F700C073
S1130A800000878310920020DF91CF911F91089579
S1130A901F920F920FB60F92112408B60F9218BE30
S1130AA009B60F9219BE0BB60F921BBE2F933F933C
S1130AB04F935F936F937F938F939F93AF93BF9362
S1130AC0EF93FF9359DFE0E0F9E010A211A2FF9148
S1130AD0EF91BF91AF919F918F917F916F915F91B2
S1130AE04F913F912F910F900BBE0F9009BE0F9025
S1130AF008BE0F900FBE0F901F901895E0ECFAE01F
S1130B00838382818823ECF780E48A95F1F7E0EC13
S1130B10FAE083810895E0ECFBE0838382818823FB
S1130B20ECF780E28A95F1F7E0ECFBE0838108952D
S1130B30AF92CF92EF920F93CF93DF93E0EAF6E078
S1130B40C0E1C183D8E3D48BC5830F2EF3E0AF2E6D
S1130B50F02DC12CE12C00E020E040EA56E060ECEE
S1130B607BE08EE291E21DD0E0ECFBE01382E0E852
S1130B70F6E0C183D48BC5836894AA24A1F820E04D
S1130B8040E856E060EC7AE085E391E20AD0E0ECDC
S1130B90FAE01382DF91CF910F91EF90CF90AF9055
S1130BA00895AF92CF92EF920F93FC01608371830B
S1130BB0428353831482CC2011F090E801C090E06A
S1130BC0222311F080E201C080E000650A29092B8C
S1130BD0082BDB010C93A081B1811196EC92158254
S1130BE016820280F381E02D80EA81830F91EF90D9
S1130BF0CF90AF900895FC012081207F622B608309
S1130C000895E0E6F6E090E4928380E88183E0E4EE
S1130C10F6E092838183E0EBF9E08BE0858387E162
S1130C20868384EA87838481806184838481886065
S1130C308483089597FB072E16F4009406D077FD5D
S1130C4008D00BD007FC05D03EF4909581959F4FBA
S1130C500895709561957F4F0895AA1BBB1B51E1C0
S1130C6007C0AA1FBB1FA617B70710F0A61BB70B18
S1130C70881F991F5A95A9F780959095BC01CD01BD
S1090C800895F894FFCF73
S9030000FC
