S01600005053555F71756164636F707465722E737265637F
S1130000F9C000001BC1000019C1000017C10000A5
S113001015C1000013C1000011C100000FC1000090
S11300200DC100000BC1000009C1000007C10000A0
S113003005C1000003C1000001C10000FFC00000B1
S1130040FDC00000FBC00000F9C00000F7C00000C4
S1130050F5C00000F3C00000F1C00000EFC00000D4
S1130060EDC00000EBC00000E9C00000E7C00000E4
S1130070E5C00000E3C00000E1C00000DFC00000F4
S1130080DDC00000DBC00000D9C00000D7C0000004
S1130090D5C00000D3C00000D1C00000CFC0000014
S11300A0CDC00000CBC00000C9C00000C7C0000024
S11300B0C5C00000C3C00000C1C00000BFC0000034
S11300C0BDC00000BBC00000B9C00000B7C0000044
S11300D0B5C00000B3C00000B1C00000AFC0000054
S11300E0ADC00000ABC00000A9C00000A7C0000064
S11300F0A5C00000A3C00000A1C000009FC0000074
S11301009DC000009BC0000099C0000097C0000083
S113011095C0000093C0000091C000008FC0000093
S11301208DC000008BC0000089C0000087C00000A3
S113013085C00000ACC4000081C000007FC0000086
S11301407DC000007BC0000079C0000077C00000C3
S113015075C0000073C0000071C000006FC00000D3
S11301606DC000006BC0000069C0000067C00000E3
S113017065C0000063C0000061C000005FC00000F3
S11301805DC000005BC0000059C0000057C0000003
S113019055C0000053C0000051C000004FC0000013
S11301A04DC000004BC0000049C0000047C0000023
S11301B045C0000043C0000041C000003FC0000033
S11301C03DC000003BC0000039C0000037C0000043
S11301D035C0000033C0000031C000002FC0000053
S11301E02DC000002BC0000029C0000027C0000063
S11301F025C0000011241FBECFEFDFE3DEBFCDBF5B
S113020000E00CBF18BE19BE1ABE1BBE10E2A0E06F
S1130210B0E2E4E8FCE000E00BBF02C007900D92FE
S1130220A230B107D9F71BBE21E2A2E0B0E201C0BF
S11302301D92AE34B207E1F793D322C5E1CEAF925B
S1130240BF92CF92DF92EF92FF920F931F93CF93BF
S1130250DF93FC01C6A8D7A8C4AAD5AAE0ACF1AC28
S1130260E6AAF7AA00A511A500AF11AF82A193A138
S1130270268D378D821B930B0F2EFAE0AF2EB12CF7
S1130280F02DB501D6D4EB0160A771A72091002011
S113029030910120C601B901CCD46B01C701B90169
S11302A0C8D47601E60EF71EC801B901C2D487018D
S11302B0060F171FCE01B901BCD4600F711F60ABCC
S11302C071AB86899789C89FA001C99F500DD89F9B
S11302D0500D112442875387A08DB18D6A9FC001B0
S11302E06B9F900D7A9F900D112484879587840FBE
S11302F0951FDF01A85BBF4F8D939C93C4ACD5AC15
S1130300C2AED3AEE6ACF7ACE4AEF5AE02A513A52F
S113031006AF17AF40A151A1841B950BB50189D439
S1130320EB0162A773A7CB01B90183D45B01C601BA
S1130330B9017FD46501C60ED71EC701B90179D4AE
S11303407601E60EF71EC801B90173D4E60EF71E56
S1130350E082F18280899189C89F9001C99F300D04
S1130360D89F300D11242483358362A973A942894F
S11303705389649FC001659F900D749F900D112453
S113038086839783820F931F848F958FDF91CF91FC
S11303901F910F91FF90EF90DF90CF90BF90AF909F
S11303A00895E0E0F8E083E080838183828383839F
S11303B08181806181838181806281838181806484
S11303C081838181806881838FE0A0E4B6E0119607
S11303D08C9310AE11AE12AE13AE14AE15AE1092D5
S11303E03E0810923F0889E298E686A397A363E04B
S11303F080E098E0FFC3E0E0F8E0818181838181BF
S1130400818381818183818181830895E0E0F8E0A3
S1130410E485E0FF0EC0E0E0F8E0A1E0A48780AF4F
S113042091AF62AF73AF44AF55AF20933E083093A2
S11304303F0808958091E8209091E9209C01215D76
S113044037402F32384018F5880F991F880F991FAD
S11304506091702070917120E0910C21F0910D2138
S1130460A0911F20B09120209C01261B370B2E0F3A
S11304703F1FAC014A1B5B0B4E0F5F1F680F791FB8
S11304806E1B7F0B8A0F9B1F8E1B9F0BBFCF20E021
S113049030E040E050E060E070E080E090E0B6CF13
S11304A066E070E060936A2070936B2048E050E04F
S11304B040936C2050936D2023E030E0209364201F
S11304C03093652082E090E08093662090936720CB
S11304D060930621709307214093082150930921CA
S11304E020930021309301218093022190930321D2
S11304F06093192070931A2040931B2050931C2062
S11305002093132030931420809315209093162069
S113051088EC90E080933120909332208093822065
S11305209093832080931E2190931F2108957F929E
S11305308F929F92AF92BF92CF92DF92EF92FF92EF
S11305400F931F93CF93DF930F2EF0E88F2EF6E0D7
S11305509F2EF02D6894772474F8F401768208EEC7
S113056010E2F8018181C9D2D82FF0E0CF2FF80131
S1130570C083D18380E0C1D2C80FD11DF801C083EC
S1130580D1830F2EF1E2EF2EF0E2FF2EF02DF701D2
S11305908181B3D2D82FF0E0CF2F05E210E2F80129
S11305A0C083D183F7018081A8D2C80FD11DF8017F
S11305B0C083D1830F2EF2E7EF2EF0E2FF2EF02D51
S11305C0F70181819AD2D82FF0E0CF2F06E710E20D
S11305D0F801C083D183F70180818FD2C80FD11D68
S11305E0F801C083D1830F2EFEE0EF2EF1E2FF2E3F
S11305F0F02DF701818181D2D82FF0E0CF2F02E1D5
S113060011E2F801C083D183F701808176D2C80F4B
S1130610D11DF801C083D18303E210E2F801818186
S11306206CD2D82FF0E0CF2F0F2EFAE6AF2EF0E2E7
S1130630BF2EF02DF501C083D183F80180815DD2F6
S1130640C80FD11DF501C083D18304E710E2F8017E
S1130650818153D2D82FF0E0CF2F0F2EFCE6CF2E7E
S1130660F0E2DF2EF02DF601C083D183F801808102
S113067044D2C80FD11DF601C083D183C0E1D1E2B9
S113068089813BD2182F00E00F2EFEE6EF2EF0E218
S1130690FF2EF02DF7010083118388812ED2080FDD
S11306A0111DF70100831183898127D210925120F3
S11306B080935220888121D2209151203091522060
S11306C0280F311D20935120309352208CEC15D2E9
S11306D0809353208CEC11D280935320F5014081F8
S11306E051814093192050931A20F60120813181C1
S11306F020931B2030931C20F701808191818093EB
S11307001D2090931E20409306215093072120938F
S113071008213093092180930A2190930B21F4013D
S113072075828091512090915220DF91CF911F9139
S11307300F91FF90EF90DF90CF90BF90AF909F907C
S11307408F907F9008950F931F93CF93DF93C0EA08
S1130750D6E010E11E8380E0DDD182E6DBD180EAC1
S11307608A95F1F780E0D6D1082F80E0D3D1302FDD
S113077020E0282B209321203093222080E0CAD12E
S1130780082F83E6C7D1302F20E0282B2093722036
S11307903093732080E0BED1082F80E0BBD1302F8E
S11307A020E0282B20930E2130930F2180E0B2D13A
S11307B08CE5B0D180E0AED1082F80E0ABD1302FF2
S11307C020E0282B209323203093242080E0A2D102
S11307D0082F8DE59FD1302F20E0282B2093742003
S11307E03093752080E096D1082F80E093D1302F8C
S11307F020E0282B209310213093112180E08AD10E
S113080080E088D11D83DF91CF911F910F910895CE
S113081080913E2190913F21019680933E219093B7
S11308203F2191DF07DE84E590E209DD80EF90E26D
S113083006DD83E090E203DD80913E2190913F212B
S11308404F9728F074DE10923E2110923F210895B4
S1130850E0E5F0E0808182608083818181FFFDCFCB
S113086088ED84BF81E0809340000895E0E0F9E0E2
S113087083E08083118288E99AE386A397A381E0C9
S11308808683E0EAF0E082818160828308951F9389
S1130890CF93DF93C0EAD6E010E11E8381E03AD122
S11308A08CEA38D180E036D180E034D180E032D196
S11308B080E030D18FE891E00197F1F700C00000AB
S11308C081E028D18FEA26D180E024D180E022D1B2
S11308D080E020D180E01ED18FE891E00197F1F70C
S11308E000C0000081E016D180EB14D180E012D169
S11308F080E010D180E00ED180E00CD18FE891E04F
S11309000197F1F700C0000081E004D18DEA02D123
S113091080E000D180E0FED080E0FCD080E0FAD01E
S11309201D8381E0DF91CF911F910895CF93DF93D1
S1130930C0E0D6E08FEF8983789462D1F8D0B0DD3F
S1130940A6DF2FEF8FE493EC215080409040E1F735
S113095000C000009CDF198281E0DF91CF910895EF
S11309608FE0E0E0F6E087831092022071DF7EDF03
S1130970DDDF0000FECF1F93CF93DF938091022031
S1130980823069F130F4882359F0813009F07BC05A
S113099015C0843009F441C0853009F074C044C0E6
S11309A0E0E0F6E0178284E08783C0DF813011F451
S11309B080930220E0E0F6E0158265C0C4DE88E0A2
S11309C0E0E0F6E08783B3DD019709F460DFAFDD93
S11309D0029709F058C082E08093022054C0C0E01E
S11309E0D6E01F8214E01F83DCDC109302201F83F7
S11309F02FEF37EA81E6215030408040E1F700C014
S1130A0000001F839FEF27EA31E6915020403040D9
S1130A10E1F700C000001F8336C0E0E0F6E0168274
S1130A2088E08783F5DE2FC0E6DCE0E0F6E084E0D2
S1130A3087839FEF27EA31E6915020403040E1F769
S1130A4000C0000087839FEF27EA31E691502040E1
S1130A503040E1F700C0000087839FEF27EA31E6CA
S1130A60915020403040E1F700C0000087839FEFA1
S1130A7027EA31E6915020403040E1F700C0000001
S1130A80878310920220DF91CF911F9108951F92C6
S1130A900F920FB60F92112408B60F9218BE09B622
S1130AA00F9219BE0BB60F921BBE2F933F934F9319
S1130AB05F936F937F938F939F93AF93BF93EF93C2
S1130AC0FF9359DFE0E0F9E010A211A2FF91EF914A
S1130AD0BF91AF919F918F917F916F915F914F9152
S1130AE03F912F910F900BBE0F9009BE0F9008BE3F
S1130AF00F900FBE0F901F901895E0ECFAE08383DF
S1130B0082818823ECF780E48A95F1F7E0ECFAE03F
S1130B1083810895E0ECFBE0838382818823ECF7F2
S1130B2080E28A95F1F7E0ECFBE083810895AF92CF
S1130B30CF92EF920F93CF93DF93E0EAF6E0C0E118
S1130B40C183D8E3D48BC5830F2EF3E0AF2EF02DF1
S1130B50C12CE12C00E020E040EA56E060EC7BE0B0
S1130B6080E491E21DD0E0ECFBE01382E0E8F6E0E3
S1130B70C183D48BC5836894AA24A1F820E040E8FB
S1130B8056E060EC7AE087E491E20AD0E0ECFAE027
S1130B901382DF91CF910F91EF90CF90AF90089592
S1130BA0AF92CF92EF920F93FC01608371834283E3
S1130BB053831482CC2011F090E801C090E02223EA
S1130BC011F080E201C080E000650A29092B082B9E
S1130BD0DB010C93A081B1811196EC9215821682EF
S1130BE00280F381E02D80EA81830F91EF90CF9012
S1130BF0AF900895FC012081207F622B60830895CB
S1130C00E0E6F6E090E4928380E88183E0E4F6E0B5
S1130C1092838183E0EBF9E08BE0858387E186832F
S1130C2084EA878384818061848384818860848367
S1130C30089597FB072E16F4009406D077FD08D08C
S1130C400BD007FC05D03EF4909581959F4F0895F5
S1130C50709561957F4F0895AA1BBB1B51E107C096
S1130C60AA1FBB1FA617B70710F0A61BB70B881F38
S1130C70991F5A95A9F780959095BC01CD010895C7
S1070C80F894FFCF12
S1050C840A0060
S9030000FC
