:100000000C9434000C9446000C9446000C9446006A
:100010000C9446000C9446000C9446000C94460048
:100020000C9446000C9446000C9446000C94460038
:100030000C9446000C9446000C9446000C94460028
:100040000C9446000C9469010C9446000C944600F4
:100050000C9446000C9446000C9446000C94460008
:100060000C9446000C94460011241FBECFEFD8E03C
:10007000DEBFCDBF22E0A0E0B1E001C01D92A33100
:10008000B207E1F70E9465020C946E020C94000026
:10009000E1EBF1E081818EBD80818093D301EDE0C1
:1000A000F1E0808191819093D4018093D501E3E4C4
:1000B000F1E0808191819093D6018093D701E7EEA2
:1000C000F1E0808191819093D8018093D901EBE395
:1000D000F1E0808191819093DA018093DB01EDE37F
:1000E000F1E0808191819093DC018093DD01EFE369
:1000F000F1E0808191819093DE018093DF018CECAF
:100100008093E0018093E10108958C3C69F4809133
:1001100003018C3C21F41092030181E008958CECE2
:100120008093030180E00895809103018C3C21F4C9
:100130001092030180E0089580E00895809170019D
:1001400080930201E1E4F1E0908180E0209171016F
:10015000820F911D982F882720917201820F911D87
:1001600091838083EBE0F1E0908180E02091730146
:10017000820F911D982F882720917401820F911D65
:1001800091838083E5EEF1E0908180E0209175011C
:10019000820F911D982F882720917601820F911D43
:1001A00091838083E1E5F1E0908180E02091770107
:1001B000820F911D982F882720917801820F911D21
:1001C00091838083EBE1F1E0908180E020917901DF
:1001D000820F911D982F882720917A01820F911DFF
:1001E00091838083E5EFF1E0908180E020917B01B5
:1001F000820F911D982F882720917C01820F911DDD
:10020000918380830895982F8EB59EBD0895E091C7
:100210000001F0E0ED52FE4F80810E9403018093C7
:1002200004010E948500909100019F3099F0811196
:1002300039C080910001E82FF0E0E159FE4F909124
:10024000040190838F5F8093000198B180E2892739
:1002500088B90895909100019F3071F4882339F195
:100260000E949E001092000181E08093010198B1EC
:1002700080E1892788B90895909100019F3029F085
:100280008823E1F0109200010895909100019F30C1
:10029000F9F481111DC01092000198B184E0892702
:1002A00088B90895909100019F3069F4D9CF809169
:1002B0000001809100018F3059F4EDCF8091000151
:1002C0008F3031F4E8CF909100019F30D9F6DDCF27
:1002D00008951F920F920FB60F9211242F933F9300
:1002E0004F935F936F937F938F939F93AF93BF933E
:1002F000EF93FF9398B188E0892788B90E9407019E
:10030000FF91EF91BF91AF919F918F917F916F91ED
:100310005F914F913F912F910F900FBE0F901F90C3
:1003200018951092C50085E08093C40088E1809301
:10033000C10086E08093C2000895E0ECF0E0808187
:100340008823ECF78091C6000895CF93C0E00E9407
:100350009D018C3C39F40E949D018C3C29F0CC23FA
:10036000B1F302C0CC2399F30E949D01C82F0E94D3
:100370009D013C2F20E0282B3093B2012093B10146
:100380000E949D01C82F0E949D013C2F20E0282B38
:1003900030930E0120930D010E949D01C82F0E94F1
:1003A0009D013C2F20E0282B3093440120934301F2
:1003B0000E949D01C82F0E949D013C2F20E0282B08
:1003C0003093E8012093E7010E949D01C82F0E940D
:1003D0009D013C2F20E0282B30933C0120933B01D2
:1003E0000E949D01C82F0E949D013C2F20E0282BD8
:1003F00030933E0120933D010E949D01C82F0E9431
:100400009D013C2F20E0282B3093400120933F0199
:1004100081E0CF910895CF93DF931F92CDB7DEB7E0
:1004200080E184B980EC8CBD8DB589838EB58983DC
:100430001EBC78940F90DF91CF910895E0ECF0E02E
:10044000208125FFFDCF9093C600E0ECF0E0908185
:1004500095FFFDCF8093C60008958CEC9CEC0E9424
:100460001E028091B1019091B2010E941E02809102
:100470004101909142010E941E0280910B019091D6
:100480000C010E941E028091E5019091E6010E94FC
:100490001E0280915101909152010E941E02809192
:1004A0001B0190911C010E941E028091F501909108
:1004B000F6010E941E0208950E94A5010E942D02CD
:1004C0000E9448001092010108958FEF87B90E94A1
:1004D00091010E940B020E945C02FDCFF894FFCFB5
:00000001FF
