S01C000041546D6567613332335F436F6D5F6275666665722E73726563EA
S11300000C9434000C9446000C9446000C94460066
S11300100C9446000C9446000C9446000C94460044
S11300200C9446000C9446000C9446000C94460034
S11300300C9446000C9446000C9446000C94460024
S11300400C9446000C946D010C9446000C944600EC
S11300500C9446000C9446000C9446000C94460004
S11300600C9446000C94460011241FBECFEFD8E038
S1130070DEBFCDBF22E0A0E0B1E001C01D92A731F8
S1130080B207E1F70E9475020C947E020C94000002
S1130090E5EBF1E081818EBD80818093D701EDE0B5
S11300A0F1E0808191819093D8018093D901E5E4B6
S11300B0F1E0808191819093DA018093DB01EBEE92
S11300C0F1E0808191819093DC018093DD01EDE387
S11300D0F1E0808191819093DE018093DF01EFE371
S11300E0F1E0808191819093E0018093E101E1E46A
S11300F0F1E0808191819093E2018093E30180910A
S1130100390190913A019093E4018093E5018CECDC
S11301108093E6018093E70108958C3C69F4809113
S113012003018C3C21F41092030181E008958CECCE
S11301308093030180E00895809103018C3C21F4B5
S11301401092030180E0089580E008958091720187
S113015080930201E3E4F1E0908180E04091730137
S1130160840F911D982F882740917401840F911D4D
S113017091838083EBE0F1E0908180E04091750110
S1130180840F911D982F882740917601840F911D2B
S113019091838083E9EEF1E0908180E040917701E2
S11301A0840F911D982F882740917801840F911D09
S11301B091838083E3E5F1E0908180E040917901CF
S11301C0840F911D982F882740917A01840F911DE7
S11301D091838083EBE1F1E0908180E040917B01A9
S11301E0840F911D982F882740917C01840F911DC5
S11301F09183808380917F01382F20E0809180015A
S1130200280F311D3093FA012093F9010895982F96
S11302108EB59EBD0895E0910001F0E0E952FE4FD5
S113022080810E940701809304010E948D009091B7
S11302300001913199F0811139C080910001E82FBA
S1130240F0E0EF58FE4F9091040190838F5F80930C
S1130250000198B180E2892788B90895909100013E
S1130260913171F4882339F10E94A60010920001A3
S113027081E08093010198B180E1892788B90895CC
S113028090910001913129F08823E1F0109200014E
S11302900895909100019131F9F481111DC01092DB
S11302A0000198B184E0892788B9089590910001EC
S11302B0913169F4D9CF809100018091000181319D
S11302C059F4EDCF80910001813131F4E8CF909160
S11302D000019131D9F6DDCF08951F920F920FB628
S11302E00F9211242F933F934F935F936F937F93B8
S11302F08F939F93AF93BF93EF93FF9398B188E04D
S1130300892788B90E940B01FF91EF91BF91AF91AA
S11303109F918F917F916F915F914F913F912F9119
S11303200F900FBE0F901F9018951092C50085E096
S11303308093C40088E18093C10086E08093C2006A
S11303400895E0ECF0E080818823ECF78091C6000A
S11303500895CF93C0E00E94A1018C3C39F40E941F
S1130360A1018C3C29F0CC23B1F302C0CC2399F336
S11303700E94A101C82F0E94A1013C2F20E0282B3C
S11303803093B6012093B5010E94A101C82F0E94A9
S1130390A1013C2F20E0282B30930E0120930D0166
S11303A00E94A101C82F0E94A1013C2F20E0282B0C
S11303B030934601209345010E94A101C82F0E9459
S11303C0A1013C2F20E0282B3093EC012093EB017A
S11303D00E94A101C82F0E94A1013C2F20E0282BDC
S11303E030933E0120933D010E94A101C82F0E9439
S11303F0A1013C2F20E0282B3093400120933F01A2
S11304000E94A101C82F0E94A1013C2F20E0282BAB
S113041030934201209341010E94A101C82F0E9400
S1130420A1013C2F20E0282B30933A01209339017D
S113043081E0CF910895CF93DF931F92CDB7DEB7BC
S113044080E184B980EC8CBD8DB589838EB58983B8
S11304501EBC78940F90DF91CF910895E0ECF0E00A
S1130460208125FFFDCF9093C600E0ECF0E0908161
S113047095FFFDCF8093C60008958CEC9CEC0E9400
S11304802E028091B5019091B6010E942E028091B6
S11304904301909144010E942E0280910B0190919E
S11304A00C010E942E028091E9019091EA010E94C0
S11304B02E0280915301909154010E942E0280914A
S11304C01B0190911C010E942E028091F9019091D0
S11304D0FA010E942E0208950E94A9010E943D0281
S11304E00E9448001092010108958FEF87B90E947D
S11304F095010E941B020E946C02FDCFF894FFCF6D
S9030000FC
